:020000040800F2
:10000000100E002049020008BF36000835300008F5
:10001000BD360008710400081D3C00080000000007
:10002000000000000000000000000000C3360008CF
:10003000F106000800000000C1360008C5360008BF
:1000400063020008630200086302000863020008FC
:1000500063020008630200086302000863020008EC
:1000600063020008630200086302000863020008DC
:100070003506000863020008410600086302000814
:1000800063020008630200086302000869050008B3
:100090005D050008630200086302000863020008AF
:1000A0006302000871370008630200086302000859
:1000B000630200086302000863020008630200088C
:1000C000630200086302000863020008630200087C
:1000D0006302000863020008053C0008113C0008A8
:1000E000630200086302000863020008630200085C
:1000F000630200086302000863020008630200084C
:10010000630200086302000863020008630200083B
:10011000630200086302000863020008630200082B
:10012000630200086302000863020008630200081B
:10013000630200086302000863020008C9050008A2
:10014000BD0500086302000863020008630200089E
:1001500063020008630200086302000863020008EB
:1001600063020008630200086302000863020008DB
:100170006302000863020008630200080000000038
:10018000630200086302000800F002F800F04CF877
:100190000AA090E8000C82448344AAF10107DA45E2
:1001A00001D100F041F8AFF2090EBAE80F0013F0E8
:1001B000010F18BFFB1A43F0010318473472000007
:1001C000547200000A4410F8014B14F00F0508BFE8
:1001D00010F8015B240908BF10F8014B6D1E05D013
:1001E00010F8013B6D1E01F8013BF9D1641E03D0EC
:1001F000641E01F8015BFBD19142E4D3704700001B
:100200000023002400250026103A28BF78C1FBD81F
:10021000520728BF30C148BF0B6070471FB506F0BA
:1002200035FF1FBD10B510BD00F0E2F81146FFF715
:10023000F5FF05F013FE00F000F903B4FFF7F2FF3D
:1002400003BC00F003F90000094880470948004753
:10025000FEE7FEE7FEE7FEE7FEE7FEE7FEE7FEE776
:10026000FEE7FEE704480549054A064B70470000D3
:10027000613700088901000810080020100E0020D6
:10028000100A0020100A002053EA020C00F06980D6
:100290002DE9F04B4FF00006002B1FBFB3FA83F59A
:1002A00003FA05F424FA05F65E4012BF1643B2FACB
:1002B00082F502FA05F4C5F120051EBF22FA05FCFD
:1002C00044EA0C04203556EA044C4FEA144418BFA3
:1002D000641C4FF000084FF00009904271EB030CD2
:1002E00039D3002919BFB1FA81F701FA07F6B0FA3C
:1002F00080F700FA07F6C7F120071EBF20FA07FCB7
:1003000046EA0C062037B6FBF4FCA7EB0507103FC6
:1003100007F01F0BCBF120060CFA0BFB2CFA06F6AC
:1003200044BFB3460026202FA4BF5E464FF0000B0B
:100330005BEA060C08BF4FF0010B19EB0B09ABFB96
:10034000027C48EB0608C01B06FB02CC0BFB03CC6F
:1003500071EB0C01C1E70B46024641464846BDE839
:10036000F08B13B54FF000004FF00001AFF30080A9
:10037000BDE81C4070474FF0000200B5134694469C
:100380009646203922BFA0E80C50A0E80C50B1F1ED
:100390002001BFF4F7AF090728BFA0E80C5048BF01
:1003A0000CC05DF804EB890028BF40F8042B08BF9F
:1003B000704748BF20F8022B11F0804F18BF00F89B
:1003C000012B704770477047704710B500F008F870
:1003D000006810BD10B5044600F002F8046010BDBE
:1003E00000487047B007002000487047B007002061
:1003F0007546FFF7F9FFAE4605006946534620F003
:100400000700854618B020B5FFF72CFFBDE8204057
:100410004FF000064FF000074FF000084FF0000BC0
:1004200021F00701AC46ACE8C009ACE8C009ACE873
:10043000C009ACE8C0098D46704710B50446AFF35B
:1004400000802046BDE81040FFF7F7BE01491820A4
:10045000ABBEFEE72600020070470000034880EDB7
:10046000040B80ED021B80ED002B7047200700205D
:10047000FEE700002DE9F04F2D4C2078AA2854D13A
:10048000207CDD2851D10E21A01C00F0C7F829499D
:1004900008706178814248D1DFF89CC0B4F902004D
:1004A000DFF898A0ACF80000B4F90450DFF890E051
:1004B000AAF80050B4F90630DFF888B0AEF8003082
:1004C000B4F90820204EABF80020B4F90A10DFF888
:1004D0007C903180B4F90C601D4FA9F800605FEA90
:1004E000004800D53843ACF800005FEA054C00D561
:1004F0003D43AAF800501D0400D53B43AEF8003040
:10050000130400D53A43ABF800200F480A0400D585
:1005100039430180310400D53E430E48A9F80060FC
:100520000D49A27B0270E07B0870BDE8F08F0000EF
:100530005C020020160100201A0000201C00002090
:100540001E000020200000201001002012010020C9
:100550000000FFFF1401002015010020014800F0F9
:1005600046BA000070020020014800F040BA0000C6
:100570007002002038B50E4C4FF400752560002540
:10058000A560E560082525610A4C050A25706070A4
:10059000080AA070E170100A20716271180AA07137
:1005A000E3716B4622460249034800F0B6F838BDB5
:1005B0002C0200200200002070020020014800F000
:1005C00016BA000098020020014800F010BA00009E
:1005D0009802002038B50E4C4FF4007525600025B8
:1005E000A560E560082525610A4C050A2570607044
:1005F000080AA070E170100A20716271180AA071D7
:10060000E3716B4622460249034800F086F838BD84
:10061000440200200A00002098020020034610B582
:100620000120002202E09C5C6040521C8A42FADBFE
:1006300010BD0000014800F0F9BC00009C03002040
:10064000014800F0F3BC0000FC03002001681823FF
:10065000CAB2103AB2FBF3F2054B6FF30901032A59
:100660009B5CC36500D9091D816508467047000081
:100670008671000810B5014600208B698A6A4FF028
:10068000C07453B1B3F5005F15D072B1012A0CD01C
:10069000022A0AD0032A09D104E01AB1012A06D09D
:1006A000022A03D1C96AC90100D5012010BDC96A57
:1006B000A142FAD010BD002AF7D0012AF2D0022AB6
:1006C000F3D0032AF3D010BD30B50468256825F4B3
:1006D00080252560046863608368402B036803D02D
:1006E00099600068C26030BD9A600068C16030BD2A
:1006F000704772B6FEE790F82020012A07D0022A40
:1007000005D0416A41F480214162012070470068B0
:1007100042690A43426100207047F0B590F82050CA
:100720000468A468012D05D0022D03D0416A41F46C
:1007300080215DE014F0406F01D1E50055D5C4F390
:100740000164022C03D9416A41F4000150E0012503
:10075000A5401D608D684FF4C0739DB1CE683543D0
:100760004E6845EAC605066803EB0417F5514FF4D9
:10077000C275076805EB04150E697E51097D0129D4
:1007800005D009E00E88CD6845EA4655EBE70168DB
:100790004E5946F480764E511179D579567941EA11
:1007A000056195792D0445EA062529434FF4C6765F
:1007B000056806EB0416A9511178D57841EA056160
:1007C000957852782D0445EA022211434FF4C475FE
:1007D000026805EB04155151006803EB04114258FF
:1007E00042F0010242500020F0BD416A41F4001184
:1007F00041620120F0BD000010B590F82020012AD0
:1008000007D0022A05D0416A41F4802141620120CB
:1008100010BD3B48D0F8002242F00102C0F800228F
:10082000D0F8002222F47C52C0F80022D0F8002236
:100830004B6A42EA0322C0F800220A7D02F01F033D
:1008400001229A40D0F81C329343C0F81C32CB6985
:10085000B3B9D0F80C329343C0F80C328C894B6892
:1008600064F31F434C6900EBC404C4F840320C89A4
:100870000B6864F31F434C6900EBC404C4F84432B2
:10088000CB69012B16D1D0F80C321343C0F80C32CF
:100890000C884B6864F31F434C6900EBC404C4F834
:1008A00040320C89CB6864F31F434C6900EBC404ED
:1008B000C4F844328B69002BD0F804320ED01343B5
:1008C000C0F804320B69002BD0F8143208D013435F
:1008D000C0F81432096A012904D008E09343EFE715
:1008E0009343F5E7D0F81C121143C0F81C12D0F85E
:1008F000001221F00101C0F80012002010BD00001C
:1009000000640040704730B590F82040012C05D0BD
:10091000022C03D0416A41F480215DE00468002983
:1009200055D02469A40754D04FF4D874056804EB5B
:1009300001142D5915F00405956005682D594ED008
:10094000ED08556005682C5904F00204D4604FF49A
:10095000DA74056804EB01142D5905F00F051561D3
:1009600005682D59C5F30725956105682C59240C98
:1009700054614FF4DC72046802EB0112A4581C703D
:100980000468A458240A5C700468A458240C9C7061
:100990000468A258120EDA704FF4DE72046802EB9B
:1009A0000112A4581C710468A458240A5C710468DC
:1009B000A458240C9C710468A258120EDA710068C5
:1009C00081B1016941F020010161002030BDE4687E
:1009D000A8E7416A41F400114162012030BD6D0D6C
:1009E0001560AFE7C16841F02001C160EDE72DE976
:1009F000F05F0546006800244669D0F804908768D7
:100A0000D0F80CB0D0F810A0D0F81880F10748D07A
:100A1000F90714D001218160B80703D5284600F0FA
:100A2000A4FA0CE0780702D54FF4006407E0380719
:100A300002D54FF4805402E0284600F095FAF805FC
:100A400016D529684FF480708860B80503D528460C
:100A500000F08DFA0CE0780502D544F4005407E06C
:100A6000380502D544F4804402E0284600F07EFABE
:100A7000F80316D529684FF480308860B80303D591
:100A8000284600F076FA0CE0780302D544F40044DE
:100A900007E0380302D544F4803402E0284600F031
:100AA00067FA300707D55FEACB6004D529681020C4
:100AB00044F40074C86070074FF0080707D55FEA78
:100AC0000B7004D52868C760284600F0A9F9B00764
:100AD00006D52868C068800702D0284600F0A2F931
:100AE000700607D55FEACA6004D52968102044F46F
:100AF00080640861B00607D55FEA0A7004D52868EB
:100B00000761284600F000FAF00606D5286800695B
:100B1000800702D0284600F0F8F9B00308D55FEA54
:100B2000C96005D5296810204860284600F0EEF914
:100B3000F00307D55FEA097004D5286847602846A6
:100B400000F018FA300446D55FEA497040D5F00548
:100B500004D55FEAC87001D044F00104B00504D5A3
:100B60005FEA887001D544F00204700504D55FEA9D
:100B7000487001D544F00404300529D518F0700FF1
:100B800026D008F07000402815D006DC102809D0C7
:100B900020280AD0302816D10AE050280ED060282C
:100BA00011D10EE044F008040DE044F010040AE016
:100BB00044F0200407E044F0400404E044F08004E2
:100BC00001E044F480742868816921F0700181613A
:100BD000296804204860002C05D0686A20436862B8
:100BE0002846FFF78FFEBDE8F09F70B5040003D0E4
:100BF00094F8200010B104E0012070BD204600F000
:100C000081F82068016841F00101016000F078FC82
:100C10000546052604E000F073FC401B0A2811D8A5
:100C200020684068C007F6D02068016821F0020102
:100C3000016000F065FC05460BE000F061FC401B24
:100C40000A2806D9606A40F40030606284F82060A7
:100C5000D2E7206840688007EFD4207E0128206812
:100C600001683DD021F080010160607E012820688C
:100C7000016838D021F040010160A07E0128206881
:100C8000016833D021F020010160E07E0128206856
:100C900001682ED041F010010160207F01282068FA
:100CA000016829D021F008010160607F01282068D7
:100CB000016824D021F004010160D4E90201084355
:100CC000D4E90412114308436168491E08432168AE
:100CD000C86100206062012084F82000002070BDFF
:100CE00041F08001C0E741F04001C5E741F020013B
:100CF000CAE721F01001CFE741F00801D4E741F045
:100D00000401D9E7F0B587B0044614216846FFF71F
:100D100032FB3E4B3E48DFF8F0E01968D4F800C0E3
:100D20003B4A03250226092710300024491CF445BC
:100D30002AD11960012907D1016841F000710160D1
:100D4000006800F000700590106840F00800106026
:100D50001068CDE9005600F00800CDE9047069463E
:100D60002C48CDE9024500F0D3FA002201211320DE
:100D700000F068FC132000F057FC00220121142031
:100D800000F060FC14203AE0DFF88CE0F44538D144
:100D9000D0F800C04CF0806CC0F800C0D0F800C0A3
:100DA00001290CF0806CCDF814C0196007D10168DE
:100DB00041F000710160006800F00070059010685B
:100DC00040F002001060106802AB00F002000590D5
:100DD0006020CDE9000683E8B00069460F4800F0C6
:100DE00097FA002211463F2000F02CFC3F2000F033
:100DF0001BFC00221146402000F024FC402000F0A3
:100E000013FC07B0F0BD0000006400401801002092
:100E100030380240000C02400068004000040240EC
:100E20007047000030B505463348344C8BB08542DE
:100E30002DD101AB03AA00212846FFF764FD0398DA
:100E4000A0F50071013905D0012903D0022901D094
:100E5000032918D1401EC0B22949207001EB0010AF
:100E600001880181BDF8041049BA0180BDF806105F
:100E700049BA4180BDF8081049BA81809DF80A102E
:100E8000817104F005FD02211B48FFF734FC1D4869
:100E900085422ED102AB04AA00212846FFF733FD7C
:100EA0000498A0F50071013905D0012903D0022969
:100EB00001D0032919D1401E1149C0B260707031B0
:100EC00001EB001001880181BDF8081049BA0180CA
:100ED000BDF80A1049BA4180BDF80C1049BA8180AA
:100EE0009DF80E10817104F0D3FC02210548FFF734
:100EF00002FC0BB030BD000070020020000000209A
:100F00002C010020980200207047704770470000B5
:100F100070B5044690F82000012804D0606A40F4BF
:100F20000020606218E0022084F820002068016838
:100F300021F00101016000F0E3FA05460EE000BF78
:100F400000F0DEFA401B0A2808D9606A40F400303D
:100F50006062052084F82000012070BD2068406890
:100F6000C007EDD1606270BD704770477047704731
:100F70007047704770472DE9F0410446876D00F0D7
:100F8000BFFA064694F835000025022806D08020D6
:100F9000606584F834500120BDE8F0812068016864
:100FA00021F0160101602068416921F08001416152
:100FB000206C08B9A06C20B12068016821F00801FC
:100FC00001602068016821F0010101600CE000F07F
:100FD00097FA801B052807D920206065032084F834
:100FE000350084F83450D7E720680068C007EED198
:100FF00094F85C103F208840B860012084F83500E8
:1010000084F834500020C7E790F83510022903D047
:101010008021416501207047052180F83510006866
:10102000016821F001010160002070472DE9F843BB
:1010300004464FF00009CDF8009063484FF4165174
:10104000A56D0068B0FBF1F72E6894F85C100820DD
:1010500000FA01F131420FD021680A6852070BD51E
:101060000A6822F004020A6094F85C108840A860C4
:10107000606D40F00100606594F85C104FF001086D
:1010800008FA01F0304208D021684969090604D500
:10109000A860606D40F00200606594F85C10042068
:1010A0008840304208D021680968890704D5A860C3
:1010B000606D40F00400606594F85C10102088407A
:1010C000304218D021680968090714D5A860206843
:1010D0000168490304D50068000308D5A16C07E046
:1010E0000168C90503D4016821F008010160216C81
:1010F00009B12046884794F85C102020884030428F
:1011000031D021680968C9062DD5A86094F835004A
:1011100005282068016806D0490347D50068000308
:101120001DD4616C1CE021F016010160206841694A
:1011300021F080014161206C08B9A06C20B12068C9
:10114000016821F00801016094F85C103F2088409C
:10115000A86084F8358084F83490216D1FE0E16B3D
:1011600009B120468847606D00282BD0606DC0070C
:1011700014D0052084F835002068016821F00101B1
:1011800001600098401C0090B84203D820680068B5
:10119000C007F6D184F8358084F83490E16C0029DA
:1011A00010D001B02046BDE8F04308470168C905EA
:1011B000D5D4016821F01001016084F8358084F8ED
:1011C0003490CCE7BDE8F883280100202DE9F041F8
:1011D000044600F095F906465CB1022084F835001B
:1011E000002584F834502068016821F00101016075
:1011F0000DE00120BDE8F08100F082F9801B052898
:1012000005D920206065032084F83500F2E72068C6
:101210000068C007F0D12268116820480140D4E975
:1012200001031843D4E90336334318436369184371
:10123000A3691843E3691843236A18430843616AA2
:10124000042903D1D4E90B13194308431060206823
:101250004069666A20F0070130460E4301270428E2
:101260000CD1A06A0643E06A40B12046FFF702FABB
:1012700020B14020606584F83570BAE72068466187
:101280002046FFF7E3F994F85C203F21914081600C
:10129000656584F835700020ACE700003F8010F0F1
:1012A0002DE9F0410446866D90F8340000250128B0
:1012B0000DD0012084F8340094F835700020012FFF
:1012C00007D084F8340002252846BDE8F0810220CA
:1012D000FBE7022784F8357060652046FFF7F4F9D4
:1012E00094F85C103F208840B0602068016841F0AD
:1012F00016010160206C20B12068016841F00801EE
:1013000001602068016841F001010160DCE7000034
:101310002DE9F84FDFF8BCA10022012503264FF08C
:101320000F090AF1040BAAF1040E00BF0B6805FABD
:1013300002F42340A34270D10F7907F00307012F75
:1013400001D0022F16D187684FEA420806FA08FC3E
:1013500027EA0C07D1F80CC00CFA08FC4CEA070C81
:10136000C0F808C04768A7430C79C4F30014944040
:101370003C4344600C79E443A4070AD0C4684FEAB4
:10138000420C06FA0CF7BC438F6807FA0CF72743A8
:10139000C7600C7904F00304022C12D1D40800EBCE
:1013A000840CDCF820405707FF0E09FA07F824EAFE
:1013B0000804D1F8108008FA07F848EA0408CCF8C5
:1013C000208004684FEA420C06FA0CF7BC430F7900
:1013D00007F0030707FA0CF7274307604C6814F47B
:1013E000403F70D03C4C276847F480472760246812
:1013F00022F0030704F480440094384C07EB040CFB
:10140000DCF8084897074FEA177809FA08F7BC4351
:10141000334FB84202D1002724E054E0314FB842A4
:1014200001D101271EE0304FB84201D1022719E057
:101430002E4FB84201D1032714E02D4FB84201D1FD
:1014400004270FE02B4FB84201D105270AE02A4FAD
:10145000B84201D1062705E0284FB84201D107273D
:1014600000E0082707FA08F72743CCF80878DAF8ED
:1014700000405746D1F804C09C435FEACC2C00D50D
:101480001C433C60DBF800405F46D1F804C09C433D
:101490005FEA8C2C00D51C433C60DEF800407746A8
:1014A000D1F804C09C435FEA8C3C00D51C433C60EF
:1014B000084F083F3C68D1F804C09C435FEACC3C2D
:1014C00000D51C433C60521C102AFFF42FAFBDE82E
:1014D000F88F0000083C01404438024000300140D1
:1014E000000002400004024000080240000C0240DC
:1014F000001002400014024000180240001C02408C
:1015000001488068704700001C01002070B504008D
:1015100011D021684CF6CC400860216845F2555046
:101520000860D4E9000141602168A0688860FFF785
:10153000E7FF05460DE0012070BD00BFFFF7E0FFAB
:10154000401B312805D92068C068800701D00320DE
:1015500070BD2068C0688007F0D121684AF6AA20D3
:101560000860002070BD00684AF6AA2101600020D2
:10157000704700000248816802781144816070471A
:101580001C0100200B4810B5016841F40071016096
:10159000016841F480610160016841F4807101607B
:1015A000032000F06FF80F2000F006F800F024F898
:1015B000002010BD003C024070B50D4D04464FF4B4
:1015C0007A712878B1FBF0F00A490968B1FBF0F0B4
:1015D00000F00AFB48B9102C07D200222146501E09
:1015E00000F030F800206C6070BD012070BD00007C
:1015F0001C010020280100200A4808B5016841F4B8
:1016000080410160006800F4804000900548001FA0
:10161000016841F080510160006800F08050009046
:1016200008BD000044380240002809DB00F01F021A
:10163000012191404009800000F1E020C0F8001134
:1016400070470000F0B40E4B1B680C46C3F3022336
:10165000C3F10705042D00D90425191D072901D25E
:10166000002300E0DB1E012606FA05F1491E214099
:1016700099409E40761E16403143F0BC02F0E7BA16
:101680000CED00E0064900F0070208684FF6FF0382
:10169000184040EA0220034A1043086070470000E7
:1016A0000CED00E00000FA052DE9F0470E460500BC
:1016B00065D0DFF81481D8F80000F7B200F0070019
:1016C000B04207D288F80070D8F8000000F0070098
:1016D000B04254D128683D4C810712D5400703D54C
:1016E000206840F4E05020602878000703D5206887
:1016F00040F4604020602068A96820F0F0000843B2
:1017000020602878C0072DD0304968680839012842
:1017100012D0022813D0032811D0096889070029A4
:101720002DDA216821F0030101432160FFF7E8FE73
:10173000814641F2883A0EE009688903EFE70968BB
:101740008901ECE7FFF7DCFEA0EB0901514502D966
:101750000320BDE8F0872068696800F00C00B0EB5A
:10176000810FEFD1D8F80010404601F00701B142D7
:1017700007D90770006800F00700B04201D00120CF
:10178000E7E72878400705D52068E96820F4E050AD
:10179000084320602878000706D52068296920F4CE
:1017A000604040EAC100206000F038F82168084A33
:1017B000C1F30311515CC84006490860064800683F
:1017C000FFF7FAFE0020C4E7003C02400838024060
:1017D0008E710008280100202001002004480549DE
:1017E00000680968044AC1F38221515CC84070470F
:1017F00028010020083802409E710008044805496D
:1018000000680968044AC1F34231515CC84070471E
:1018100028010020083802409E710008154810B5C4
:10182000006810F00C02144813D04110042A0FD0A5
:10183000082A0ED10F4C241F2268236802F03F02B1
:101840005B0207D52068C0F38810A0FB010106E009
:10185000084610BD2168C1F38811A1FB00010023D7
:10186000FEF712FD2168C1F30141491C4900B0FB9C
:10187000F1F010BD083802400024F4002DE9F84FC3
:1018800004006ED02078DFF84C93C007A9F104055E
:101890004AD009F104000168C1F38101012908D08F
:1018A0000068C0F3810002280AD1D9F80000400284
:1018B00006D52868800337D560680028E1D033E07A
:1018C0006068B0F5803F10D0B0F5A02F286810D028
:1018D00020F480302860286820F480202860606828
:1018E000A8B1FFF70DFE06460DE0286840F48030F1
:1018F000F4E740F480202860F7E700BFFFF700FE20
:10190000801B642873D828688003F7D50CE0FFF7A4
:10191000F7FD064605E000BFFFF7F2FD801B6428D7
:10192000F0D828688003F7D42078DFF8AC828007ED
:101930004FF0000A3ED5A748001D016811F00C0FBA
:1019400008D00068C0F3810002280BD1D9F800004C
:10195000400207D42868800716D5E068012800D126
:1019600012E033E1E068B8B10120C8F80000FFF7E9
:10197000C7FD064605E000BFFFF7C2FD801B022839
:10198000C0D828688007F7D52868216920F0F800BA
:1019900040EAC10028600DE0C8F800A0FFF7B0FDE4
:1019A000064604E0FFF7ACFD801B02281FD828681C
:1019B0008007F7D42078000722D5864F87486169D1
:1019C000703771B101210160FFF79AFD064604E00E
:1019D000FFF796FD801B022809D838688007F7D5E5
:1019E0000EE0C0F800A0FFF78BFD064605E082E0A0
:1019F000FFF786FD801B02287DD838688007F7D462
:101A00002078400768D5DFF8CCB100270BF13C0BFC
:101A1000DBF80000C0000BD4DBF8001041F080516F
:101A2000CBF80010DBF80000012700F08050009098
:101A30006B4E3068C00510D4306840F48070306060
:101A4000FFF75EFD009005E0FFF75AFD0099401A90
:101A5000022850D83068C005F6D55E4EA0686C36B6
:101A600001280FD00528306810D020F00100306028
:101A7000306820F004003060A068B8B1FFF740FD86
:101A800000900FE0306840F00100F4E740F00400FF
:101A90003060F7E7FFF734FD0099411A41F28830D2
:101AA000814266D830688007F4D50EE0FFF728FD44
:101AB000009007E0FFF724FD0099411A41F28830B9
:101AC000814256D830688007F4D42FB1DBF800107B
:101AD00021F08051CBF80010A069C8B33D49091D21
:101AE0000968C1F3810102294AD00228504607D073
:101AF000C8F8600000E03CE0FFF702FD04463BE070
:101B00004746C8F86000FFF7FBFC064605E000BF4B
:101B1000FFF7F6FC801B02282BD828688001F7D439
:101B2000D4E907010843A16A2E4A490802EB0141A2
:101B3000626A41EA8211084394F82C1040EA01617C
:101B4000C9F8001001203866FFF7DAFC044606E009
:101B50003EE000BFFFF7D4FC001B022809D828682C
:101B60008001F7D534E000BFFFF7CAFC001B022854
:101B700002D90320BDE8F88F28688001F4D427E05B
:101B80000128F7D0D9F80000E26900F48001914201
:101B90001CD1226A00F03F01914217D147F6C07173
:101BA000626A0140B1EB821F10D1A26A4FF0FF338D
:101BB00000F4403103EB5202B1EB024F06D194F82E
:101BC0002C1000F07060B0EB016F01D00120D1E764
:101BD0000020CFE70438024000004742800E474211
:101BE000007000400000FFFF10B5401EB0F1807F84
:101BF00001D3012010BD4FF0E02460610F21601778
:101C000002F025F80020A06107202061002010BD0F
:101C10007047704710B5040003D094F83D0010B130
:101C200007E0012010BD002084F83C00204600F0B1
:101C30001FF8022084F83D00211D206801F09EFD60
:101C4000012084F8460084F83E0084F83F0084F8C0
:101C5000400084F8410084F8420084F8430084F88E
:101C6000440084F8450084F83D00002010BD0000C9
:101C700008B500680B49884212D10B48016841F44D
:101C8000003101600068002200F40030009011462D
:101C90001920FFF7D7FCBDE808401920FFF7C4BCA6
:101CA00008BD0000004401404438024090F83D1057
:101CB000012901D001207047022180F83D10016800
:101CC000CA6842F00102CA6000681149884214D013
:101CD000B0F1804F11D00F4988420ED00E49884292
:101CE0000BD00E49884208D00D49884205D00D49D5
:101CF000884202D00C49884204D1816801F0070172
:101D0000062903D0016841F00101016000207047FD
:101D1000000001400004004000080040000C0040AA
:101D2000000401400040014000180040704770B5B9
:101D30000446006801694FF00005C943890715D4BE
:101D4000C168C943890711D4E91E016101202077C8
:101D5000206880698007204602D0FFF7E7FF04E093
:101D600000F098F8204600F096F825772068016981
:101D7000C943490717D4C168C943490713D46FF051
:101D800004010161022020772068806910F4407FFF
:101D9000204602D0FFF7CAFF04E000F07BF820469F
:101DA00000F079F8257720680169C943090716D43E
:101DB000C168C943090712D46FF00801016104200A
:101DC00020772068C0698007204602D0FFF7AEFF69
:101DD00004E000F05FF8204600F05DF82577206809
:101DE0000169C943C90617D4C168C943C90613D4D8
:101DF0006FF010010161082020772068C06910F49D
:101E0000407F204602D0FFF791FF04E000F042F847
:101E1000204600F040F8257720680169C943C907CA
:101E200008D1C168C943C90704D1891E0161204690
:101E300000F032F820680169C943090609D4C16875
:101E4000C943090605D46FF0800101612046FFF700
:101E5000DFFE20680169C943490609D4C168C94346
:101E6000490605D46FF040010161204600F07CFE78
:101E700020680169C94389060BD4C168C943890632
:101E800007D46FF0200101612046BDE87040FFF7E4
:101E9000C0BE70BD704770472DE9F047FA492DED7F
:101EA0000C8B9FEDFACB9FEDFBAB9FEDFC9B9FED69
:101EB000FD8BFE4C8842A4F180057DD1A8690926DE
:101EC000401CA861B5F9060090FBF6F004F081FD16
:101ED000C4E91A01B5F9080090FBF6F0323004F0BD
:101EE00078FD41EC1B0B84ED1CBBB5F902004042B0
:101EF00090FBF6F004F06DFDC5E9080195ED0A0BC5
:101F000085ED0C0B95ED100B85ED120B95ED160B79
:101F100085ED180B95ED1C0B85ED1E0BB0EE4B0AF5
:101F2000F0EE6B0A02F074F953EC1C2B51EC100B21
:101F300004F07AFD01D284ED1C8B94ED1A0B02F0B3
:101F400067F953EC1C2B51EC100B04F06DFD01D222
:101F500084ED1A8B95ED080B02F05AF99FEDD41B16
:101F600051EC100B53EC112B04F05EFD01D285ED0A
:101F7000088B9FEDD10B01F07BFEB0EE40DAF0EE66
:101F800060DA02F079FF95ED081B51EC100B53EC71
:101F9000112B04F085FD94ED1A1B53EC112B04F06A
:101FA00099FA41EC1B0BB0EE4D0AF0EE6D0A02F00F
:101FB000CBF895ED081B00E0FEE353EC112B51EC40
:101FC000100B04F06DFD94ED1C1B53EC112B04F071
:101FD00081FA41EC100BB0EE4B1AF0EE6B1A01F0E7
:101FE000B3FF53EC192B51EC100B04F059FD9FED8E
:101FF000B4CB53EC1C2B04F029FBB0EE4D0AF0EEF1
:102000006D0AC5E90A0102F037FF95ED081B51EC96
:10201000100B53EC112B04F043FD94ED1A1B53EC01
:10202000112B04F057FA41EC1B0BB0EE4D0AF0EE09
:102030006D0A02F089F895ED081B51EC100B53EC7A
:10204000112B04F02DFD94ED1C1B53EC112B04F00F
:102050005BFE41EC100BB0EE4B1AF0EE6B1A01F088
:1020600073FF53EC192B51EC100B04F019FD53ECDA
:102070001C2B04F0EBFAB0EE4D0AF0EE6D0AC5E948
:10208000100102F0F9FE95ED081B51EC100B53EC1A
:10209000112B04F005FD94ED1A1B53EC112B04F0E9
:1020A00033FE41EC1B0BB0EE4D0AF0EE6D0A02F070
:1020B0004BF895ED081B51EC100B53EC112B04F071
:1020C000EFFC94ED1C1B53EC112B04F01DFE41ECB6
:1020D000100BB0EE4B1AF0EE6B1A01F035FF53EC1B
:1020E000192B51EC100B04F0DBFC53EC1C2B04F00F
:1020F000ADFAB0EE4D0AF0EE6D0AC5E9160102F038
:10210000BBFE95ED081B51EC100B53EC112B04F0AA
:10211000C7FC94ED1A1B53EC112B04F0F5FD41ECB8
:102120001B0BB0EE4D0AF0EE6D0A02F00DF895EDC6
:10213000081B51EC100B53EC112B04F0B1FC94ED87
:102140001C1B53EC112B04F0C5F941EC100BB0EE45
:102150004B1AF0EE6B1A01F0F7FE53EC192B51EC11
:10216000100B04F09DFC53EC1C2B04F06FFAC5E936
:102170001C0195ED0C0B53EC102B95ED0A0B51EC5B
:10218000100B04F099FE41EC100B02F041F853ECF7
:10219000192B51EC100B04F047FC1AD895ED0C0BE1
:1021A00053EC102B95ED0A0B51EC100B04F084FE50
:1021B00053EC182B04F072FD0BD200BF95ED0C0B05
:1021C00053EC102B95ED0A0B51EC100B04F074FE40
:1021D000B4E095ED0C0B53EC102B95ED0A0B51EC84
:1021E000100B04F069FE41EC100B02F011F853ECF7
:1021F000192B51EC100B04F051FD23D295ED0C0B73
:1022000053EC102B95ED0A0B51EC100B04F054FE1F
:1022100053EC182B04F042FD14D295ED0C0B53EC4B
:10222000102B95ED0A0B51EC100B04F045FE53EC0E
:102230001A2B04F069FD95ED0E1B53EC112B04F0E5
:1022400063FD81E095ED0C0B53EC102B95ED0A0B23
:1022500051EC100B04F030FE41EC100B01F0D8FFF4
:10226000B0EE49BAF0EE69BA53EC1B2B51EC100BEF
:1022700004F0DAFB30D895ED0C0B53EC102B95EDF8
:102280000A0B51EC100B1FE0CC02002000000000F4
:10229000000079400000000000807640000000004F
:1022A0000080664000000000000000009800002050
:1022B000000000000088E340000000000000F03F44
:1022C0001F85EB51B81E094004F0F6FD53EC182BA6
:1022D00004F0AAFBFFF472AF95ED0C0B53EC102B3E
:1022E00095ED0A0B51EC100B04F0E6FD41EC100BE0
:1022F00001F08EFF53EC1B2B51EC100B04F0CEFCC5
:1023000024D295ED0C0B53EC102B95ED0A0B51ECF0
:10231000100B04F0D1FD53EC182B04F085FB15D203
:1023200095ED0C0B53EC102B95ED0A0B51EC100BAB
:1023300004F0C2FD53EC1A2B04F0CCF895ED0E1B03
:1023400053EC112B04F0C6F8C5E90E0195ED120B04
:1023500053EC102B95ED100B51EC100B04F0ACFD71
:1023600041EC100B01F054FF53EC192B51EC100B06
:1023700004F05AFB19D895ED120B53EC102B95ED88
:10238000100B51EC100B04F097FD53EC182B04F0DC
:1023900085FC0AD295ED120B53EC102B95ED100B2A
:1023A00051EC100B04F088FD92E095ED120B53EC0C
:1023B000102B95ED100B51EC100B04F07DFD41EC52
:1023C000100B01F025FF53EC192B51EC100B04F00E
:1023D00065FC23D295ED120B53EC102B95ED100BF1
:1023E00051EC100B04F068FD53EC182B04F056FC74
:1023F00014D295ED120B53EC102B95ED100B51EC04
:10240000100B04F059FD53EC1A2B04F07DFC95EDF4
:10241000141B53EC112B04F077FC5FE095ED120BCD
:1024200053EC102B95ED100B51EC100B04F044FD08
:1024300041EC100B01F0ECFEB0EE49BAF0EE69BAD7
:1024400053EC1B2B51EC100B04F0EEFA0ED895ED6B
:10245000120B53EC102B95ED100B51EC100B04F0FC
:102460002BFD53EC182B04F0DFFA93D395ED120BF0
:1024700053EC102B95ED100B51EC100B04F01CFDE0
:1024800041EC100B01F0C4FE53EC1B2B51EC100B74
:1024900004F004FC24D295ED120B53EC102B95EDB7
:1024A000100B51EC100B04F007FD53EC182B04F04B
:1024B000BBFA15D295ED120B53EC102B95ED100BCA
:1024C00051EC100B04F0F8FC53EC1A2B04F002F85A
:1024D00095ED141B53EC112B03F0FCFFC5E914011F
:1024E00095ED180B53EC102B95ED160B51EC100BD2
:1024F00004F0E2FC41EC100B01F08AFE53EC192BC6
:1025000051EC100B04F090FA19D895ED180B53EC20
:10251000102B95ED160B51EC100B04F0CDFC53EC89
:10252000182B04F0BBFB0AD295ED180B53EC102BC3
:1025300095ED160B51EC100B04F0BEFC92E095EDFE
:10254000180B53EC102B95ED160B51EC100B04F0FF
:10255000B3FC41EC100B01F05BFE53EC192B51EC7A
:10256000100B04F09BFB23D295ED180B53EC102BB2
:1025700095ED160B51EC100B04F09EFC53EC182B50
:1025800004F08CFB14D295ED180B53EC102B95ED49
:10259000160B51EC100B04F08FFC53EC1A2B04F0CB
:1025A000B3FB95ED1A1B53EC112B04F0ADFB5FE070
:1025B00095ED180B53EC102B95ED160B51EC100B01
:1025C00004F07AFC41EC100B01F022FEB0EE49BAA7
:1025D000F0EE69BA53EC1B2B51EC100B04F024FA0B
:1025E0000ED895ED180B53EC102B95ED160B51EC06
:1025F000100B04F061FC53EC182B04F015FA93D384
:1026000095ED180B53EC102B95ED160B51EC100BB0
:1026100004F052FC41EC100B01F0FAFD53EC1B2BC3
:1026200051EC100B04F03AFB24D295ED180B53EC4F
:10263000102B95ED160B51EC100B04F03DFC53ECF8
:10264000182B04F0F1F915D295ED180B53EC102B63
:1026500095ED160B51EC100B04F02EFC53EC1A2BDD
:1026600003F038FF95ED1A1B53EC112B03F032FFEA
:10267000C5E91A0195ED1E0B53EC102B95ED1C0BC3
:1026800051EC100B04F018FC41EC100B01F0C0FDF4
:1026900053EC192B51EC100B04F0C6F919D895ED39
:1026A0001E0B53EC102B95ED1C0B51EC100B04F092
:1026B00003FC53EC182B04F0F1FA0AD295ED1E0B33
:1026C00053EC102B95ED1C0B51EC100B04F0F4FBAC
:1026D00090E095ED1E0B53EC102B95ED1C0B51EC7F
:1026E000100B04F0E9FB41EC100B01F091FD53ECF1
:1026F000192B51EC100B04F0D1FA23D295ED1E0BDF
:1027000053EC102B95ED1C0B51EC100B04F0D4FB8B
:1027100053EC182B04F0C2FA14D295ED1E0B53ECB7
:10272000102B95ED1C0B51EC100B04F0C5FB53EC7A
:102730001A2B04F0E9FA94ED001B53EC112B04F072
:10274000E3FA5DE095ED1E0B53EC102B95ED1C0BA1
:1027500051EC100B04F0B0FB41EC100B01F058FDF4
:1027600053EC192B51EC100B04F05EF90ED895EDDB
:102770001E0B53EC102B95ED1C0B51EC100B04F0C1
:102780009BFB53EC182B04F04FF997D395ED1E0BE0
:1027900053EC102B95ED1C0B51EC100B04F08CFB43
:1027A00041EC100B01F034FD53EC192B51EC100BE4
:1027B00004F074FA26D200E0B4E195ED1E0B53EC60
:1027C000102B95ED1C0B51EC100B04F075FB53EC2A
:1027D000182B04F029F915D295ED1E0B53EC102B94
:1027E00095ED1C0B51EC100B04F066FB53EC1A2B0F
:1027F00003F070FE94ED001B53EC112B03F06AFE06
:10280000C4E9000195ED0E0B84ED020B95ED140B60
:1028100084ED040B95ED1A0B84ED060B94ED000B83
:1028200084ED080B95ED082B94ED1C1B94ED1A0B11
:1028300003F042F86969491C6961EA6812B92869BC
:10284000401C28612B690020B3F5967F0EDD84EDD6
:102850001A8B84ED1C8B85ED0E8B85ED088BE88043
:1028600028816880A88040F22D132B61012A00D1B5
:102870002861322901D1E8606861AC48FEF773FE37
:10288000AB4E3068B0F9020004F0A3F8A94DC5E9D9
:102890000E0170685835B0F9020004F09AF845E965
:1028A0000401B068B0F9020004F093F8C5E9000132
:1028B000F068B0F9020004F08CF89F4EC5E90401FD
:1028C00096ED06AB84ED0AAB96ED089B84ED0C9B70
:1028D00096ED0A8B84ED0E8B96ED0C0B84ED100BB0
:1028E00051EC100B04F046F80FFA80F951EC180B7C
:1028F00004F040F80FFA80F851EC190B04F03AF8A4
:1029000007B251EC1A0B04F035F800B24B464246C0
:102910003946FDF72FFE9FED899BDFF8288205EDF4
:10292000129BD8F80070B7F9020004F052F845E99C
:102930001601388804F064F845E91001B7F9080079
:1029400004F047F89FED80AB45E90E0194ED020BD2
:1029500053EC1A2B51EC100B04F0A2F89FED7CBB4A
:1029600053EC1B2B04F09CF89FED7BCB53EC1C2B02
:1029700004F096F89FED7A8B53EC182B03F066FE6B
:1029800045E91401F86804F024F845E90C0196EDD6
:10299000020B84ED120B85ED0A9BD8F80470B7F991
:1029A000020004F016F8C5E90601388804F028F89A
:1029B000C5E90C01B7F9080004F00BF8C5E90E01F0
:1029C00094ED040B53EC1A2B51EC100B04F068F847
:1029D00053EC1B2B04F064F853EC1C2B04F060F850
:1029E00053EC182B03F032FEC5E90801F86803F038
:1029F000F0FFC5E9100196ED100B84ED140B85ED89
:102A0000169BD8F80870B7F9020003F0E2FFC5E999
:102A10001201388803F0F4FFC5E91801B7F908007E
:102A200003F0D7FFC5E91A0194ED060B53EC1A2BFE
:102A300051EC100B04F034F853EC1B2B04F030F87D
:102A400053EC1C2B04F02CF853EC182B03F0FEFD78
:102A5000C5E91401F86803F0BCFFC5E91C0196ED57
:102A6000160B84ED160B85ED229BD8F80C70B7F988
:102A7000020003F0AEFFC5E91E01388803F0C0FF75
:102A8000C5E92401B7F9080003F0A3FFC5E9260151
:102A900094ED080B53EC1A2B51EC100B04F000F8DA
:102AA00053EC1B2B03F0FCFF53EC1C2B03F0F8FF43
:102AB00053EC182B03F0CAFDC5E92001F86803F0B8
:102AC00088FFC5E9280196ED1C0B84ED180B03F077
:102AD000A1FA94ED180B51EC100B03F04BFF94EDA1
:102AE000160B06B251EC100B03F044FF94ED140BDF
:102AF00007B251EC100B03F03DFF94ED120B05B241
:102B000051EC100B03F036FF00B233463A4629462B
:102B1000FDF760FD03F02AFABDEC0C8BBDE8F04731
:102B200003F03ABABDEC0C8BBDE8F087C002002080
:102B30000C020020A0050020A006002000000000DC
:102B4000000000401C020020000000000000424085
:102B50000000000000FFBF40000000000080474070
:102B60000000000000E8B7407047704710B50068EB
:102B70000549884207D101220449054800F00EFAB0
:102B800004490020087010BD004800405C0200208D
:102B90005803002018000020F8B5016804460868B2
:102BA000CA684B6910F00F0F4FF0000559D003F0C1
:102BB000010602F49077374365D0C10705D0D105EF
:102BC00003D5216C41F001012164410705D5D907E6
:102BD00003D0216C41F002012164810705D5D9079A
:102BE00003D0216C41F004012164010707D502F0F4
:102BF0002001314303D0216C41F008012164216C94
:102C000000293AD0800604D5900602D5204600F06F
:102C1000C9FE20684069216CC0F38010090700D408
:102C200060B3204600F089FE20684069400621D547
:102C30002068143050E8001F21F0400140E80012E5
:102C4000002AF5D1A06BA8B16C490165A06BFEF715
:102C5000DBF9002811D0A06B016D01B0BDE8F04098
:102C6000084783060FD593060DD52046BDE8F840EA
:102C700000F098BE2046FFF779FFF8BD2046FFF729
:102C800075FF2564F8BD266B2023012E79D1C60679
:102C900077D5D60675D5086848680090486940061B
:102CA00040D5A16B086840680004000CEAD0A28DF2
:102CB0008242E7D9E085C869B0F5807F2DD02068D1
:102CC0000C3050E8001F21F4807140E80012002A07
:102CD000F5D12068143050E8001F21F0010140E8D0
:102CE0000012002AF5D12068143050E8001F21F0AE
:102CF000400140E80012002AF5D184F83E302563F7
:102D000020680C3050E8001F21F0100140E800124C
:102D1000002AF5D1A06BFEF72EF9A08DE18D401AA7
:102D200081B229E0A08DE18D401A81B2E08D0028AA
:102D3000A8D00029A6D020680C3050E8002F22F43B
:102D4000907240E80026002EF5D12068143050E83B
:102D5000002F22F0010240E80026002EF5D184F871
:102D60003E30256320680C3050E8002F22F010021E
:102D700040E80023002BF5D12046FFF7F6FEF8BD12
:102D8000FFE705062BD5150629D594F83D00212827
:102D9000F5D1A068B0F5805F01D12069B0B1206A9B
:102DA000411C2162216800784860E08C401E0004CC
:102DB000000CE084E3D12068C16821F08001C1608B
:102DC0002068C16841F04001C160D8E7206A0088EE
:102DD000C0F308004860206A801C2062E5E74006D6
:102DE000CDD55006CBD5CA68204622F04002CA6035
:102DF00084F83D3000F01DF9C1E7000045380008B7
:102E000070B5040004D094F83D00002510B106E030
:102E1000012070BD84F83C50204600F023F82420A7
:102E200084F83D002068C16821F40051C16020464B
:102E300000F018FE2068016921F4904101612068CA
:102E4000416921F02A0141612068C16841F40051C3
:102E5000C1602564202084F83D0084F83E000020F5
:102E600070BD00002DE9F04186B006461421684689
:102E7000FDF781FA4349DFF808C137684148103946
:102E8000022203230725002467451FD1066846F464
:102E900000360660006800F400300590086840F0D5
:102EA000080008600868694600F008000590602086
:102EB0008DE81500CDE903353348FEF729FA0022E5
:102EC00011462620FEF7BEFB262053E0DFF8BCC0EB
:102ED000674551D1076847F480270760006800F410
:102EE00080200590086840F0020008600868694684
:102EF00000F0020005904FF440608DE81500CDE928
:102F000003352348FEF704FA234D22484FF00067AB
:102F10002860C5E901744FF48068C5E903486C6115
:102F2000AC61EC612C6228466C62FEF74FF908B187
:102F3000FDF7DFFBB563AE63174D164860353030E3
:102F4000E5E802074020A5E81101134845F81449B7
:102F50006030AC61EC612C626C62FEF737F908B14D
:102F6000FDF7C7FB7563002211462720AE63FEF70D
:102F700069FB2720FEF758FB06B0BDE8F081000092
:102F80000044004040380240000C0240004800402D
:102F900000040240286002409C03002090F83E306C
:102FA000202B0ED159B152B190F83C30012B08D0F2
:102FB000012380F83C300023036300F0D9BD0120D9
:102FC000704702207047000070B500681449012660
:102FD000144D88421AD1144C2078AA280FD1287891
:102FE00050B9FDF747FA1022611C1048FFF7D6FFD1
:102FF0002E702078AA2802D12878012808D0012232
:1030000009490A48FFF7CAFF00202870EE6070BD2A
:10301000FDF730FA112204490448FFF7BFFFF5E736
:1030200000480040180000205C02002058030020E7
:1030300070477047FEE7000070B50C462DED0A8B17
:10304000054653EC112B51EC100B374E9FED37BB5F
:103050009FED38CB03F058FE41EC190B96ED060BB3
:1030600053EC192B51EC100B03F01AFD94ED001BDF
:1030700053EC112B03F020FF9FED301B53EC112B71
:1030800003F00EFD96ED1A0B41EC1A0B53EC192BC5
:1030900051EC100B03F004FD94ED021B53EC112BCB
:1030A00003F018FA53EC1A2B03F014FA41EC180B46
:1030B00053EC1B2B03F0F2FD02D285ED00BB0BE0BD
:1030C00053EC1C2B51EC180B03F0AEFC02D285ED37
:1030D00000CB01E085ED008B9FED1A8B51EC1A0BB4
:1030E00053EC182B03F0DCFC94ED001B53EC112B7C
:1030F00003F0F0F9C4E9000196ED100B53EC192B25
:1031000051EC100B03F0CCFC53EC182B03F0C8FC73
:1031100094ED021B53EC112B03F0DCF9C4E902011E
:10312000BDEC0A8B70BD00002007002000000000ED
:103130000000D040000000000000D0C000000000EF
:1031400000005940FCA9F1D24D62503F2DE9F743F0
:1031500014462DED0A0B894606462DED108BB0EE78
:1031600044DAF0EE64DAB0EE42BAF0EE62BAB0EEF3
:10317000418AF0EE618AB0EE40FAF0EE60FA9FED1F
:10318000BDAB9FEDBEEBBF4D9FEDBF0B51EC1D0BDB
:1031900053EC102B03F084FC53EC1B2B03F09AF937
:1031A00053EC182B03F0B0FD41EC190BB0EE490ABB
:1031B000F0EE690A01F02CF8B0EE408AF0EE608A79
:1031C00053EC1A2B51EC180B03F02EFC01D89FED99
:1031D000B09B95ED000B53EC192B51EC100B03F049
:1031E0005FFC94ED041B53EC112B03F065FE53ECD4
:1031F0001E2B03F055FC41EC1C0B53EC1A2B51EC2D
:10320000180B03F04BFD3AD295ED040B53EC192B40
:1032100051EC100B03F044FC94ED021B53EC112B0A
:1032200003F058F953EC1C2B03F054F941EC180B44
:103230009FED99AB53EC1A2B03F030FD08D39FEDB3
:1032400098AB51EC180B53EC1A2B03F0EDFB03D2A7
:10325000B0EE4A8AF0EE6A8A9FED930B51EC180BA0
:1032600053EC102B03F01CFCB0EE4F1AF0EE6F1A6B
:1032700053EC112B03F020FE41EC1A0B01E09FED03
:1032800084AB95ED060B53EC1A2B51EC100B03F0AD
:1032900007FC94ED061B53EC112B03F00DFE53ECD1
:1032A0001E2B03F0FDFB95ED1A0B41EC1E0B53ECAE
:1032B0001A2B51EC100B03F0F3FB94ED081B53ECAD
:1032C000112B03F007F953EC1E2B03F003F941EC2B
:1032D000180B9FED71FB53EC1F2B03F0DFFC08D3A1
:1032E0009FED6FFB51EC180B53EC1F2B03F09CFB75
:1032F00002D286ED00FB01E086ED008B9DED160B02
:1033000051EC1B0B53EC102B03F0D6FD41EC180BCA
:1033100094F82A000227012698B194F82B004FF068
:1033200003089FED63BB9FED64FB01280CD00228CE
:1033300053EC1F2B51EC180B1ED003F0AFFC0AD836
:103340008FE084F82A6014E053EC1B2B51EC180B2F
:1033500003F06AFB1AD953EC1F2B51EC180B03F046
:1033600063FB19D253EC1B2B51EC180B03F096FCAA
:1033700012D284F82B700FE003F090FC71D953EC5B
:103380001B2B51EC180B03F04FFB66D884F82B80F5
:103390009FED4B0B84ED000B94ED000B53EC1D2BBC
:1033A00051EC100B03F096F8C9E9000194F82800DD
:1033B000E8B394F82900012802D000BF84F82960FE
:1033C00095ED020B53EC192B51EC100B03F068FB3D
:1033D0009FED3D8B53EC182B03F062FB94ED021B29
:1033E00053EC112B03F076F8C4E9020153EC182BCF
:1033F00051EC1C0B03F054FB94ED041B53EC112B0C
:1034000003F068F8C4E9040153EC182B51EC1E0BCF
:1034100003F046FB94ED061B53EC112B03F05AF816
:10342000C4E9060195ED100B53EC1A2B00E01DE0EA
:1034300051EC100B03F034FB53EC182B03F030FB72
:1034400094ED081B53EC112B03F044F8C4E9080178
:10345000BDEC108B0DB0BDE8F0839FED0D0B99E72F
:10346000FFE784F82B609FED1A0B93E784F8286040
:10347000A4E700000000000000407F4000000000C2
:1034800000005940200700200000000000FFBF405E
:103490000000000000000000000000000000D0401C
:1034A000000000000000D0C0000000000000E03F6D
:1034B000000000000088B3C0000000000088B34096
:1034C000000000000000F0BFFCA9F1D24D62503FA7
:1034D000000000000000F03F0F4810B50D490160EA
:1034E0000321416000214FF400228160C0E90312F2
:1034F0004FF440124261017641768176C1760177C0
:103500004177FDF772FB002803D0BDE81040FDF7BE
:10351000F0B810BD00640040700200200F4810B5E4
:103520000D4901600321416000214FF400228160B8
:10353000C0E903124FF44012426101764176817670
:10354000C17601774177FDF750FB002803D0BDE835
:103550001040FDF7CEB810BD006800409802002072
:103560000D4808B5016841F40011016000680022AF
:1035700000F40010009011460C20FEF763F80C20B8
:10358000FEF752F8002211460E20FEF75BF8BDE868
:1035900008400E20FEF748B830380240114808B500
:1035A000016841F080010160016801F08001009133
:1035B000016841F002010160016801F0020100911F
:1035C000016841F001010160016801F00101009111
:1035D000016841F008010160006800F008000090F7
:1035E00008BD000030380240094810B507490160A5
:1035F0000421416040F271218160FDF787FF0028BE
:1036000003D0BDE81040FDF774B810BD0030004095
:10361000C00200200C4810B50A490160A721416092
:10362000002140F2E732C0E902120161802181618C
:10363000FEF7F0FA002803D0BDE81040FDF759B8B6
:1036400010BD000000440140CC0200200C4810B521
:103650000A4901604FF4E1314160002181600C2290
:10366000C160C0E904128161C161FFF7C9FB002894
:1036700003D0BDE81040FDF73CB810BD0044004049
:10368000140300200C4810B50A4901604FF4E131E1
:103690004160002181600C22C160C0E90412816197
:1036A000C161FFF7ADFB002803D0BDE81040FDF776
:1036B00020B810BD0048004058030020FEE7FEE798
:1036C00070477047FDF756BF30B593B0302168465C
:1036D000FCF751FE14210CA8FCF74DFE1E480025F6
:1036E000016841F080510160006800F08050119045
:1036F0001A48016841F4804101600068022400F426
:1037000080401190092000904FF4803001900120FA
:10371000CDE905048005079008AA0420A82182E8C5
:1037200013000B906846FEF7A9F808B172B6FEE7E1
:103730000CA90F2081E831004FF4A0500F904FF4F6
:103740008050109005210CA8FDF7AEFF002801D095
:1037500072B6FEE713B030BD403802400070004042
:103760000248016841F470010160704788ED00E093
:103770000148FEF7DCBA0000CC020020F0B5026878
:10378000254C264D264E274F274B4FF0804CA0420C
:1037900009D0604507D0A84205D0B04203D0B84256
:1037A00001D0984204D122F0700E4A6842EA0E021B
:1037B000A0421BD0604519D0A84217D0B04215D006
:1037C000B84213D0984211D0184DA8420ED0184DCF
:1037D000A8420BD0174DA84208D0174DA84205D0DB
:1037E000164DA84202D0164DA84203D122F44075CE
:1037F000CA682A434D6922F080022A4302608A681F
:10380000C2620A688262A04201D0984201D109696D
:10381000016301214161F0BD00000140000400404E
:1038200000080040000C004000040140004001403E
:10383000004401400048014000180040001C0040C6
:103840000020004010B5806B0021C185C184FFF7C6
:103850008DF910BD70B5846B2068406994F83D10F7
:10386000C0F3C0100025212904D118B1E5842046F9
:1038700000F08AF82068406994F83E10C0F3801088
:10388000222904D118B1E585204600F056F8206CB5
:1038900040F0100020642046FFF768F970BD10B5B5
:1038A0000146806B09680968C9052FD40021C185CC
:1038B00001680C3151E8002F22F4807241E80023A6
:1038C000002BF5D10168143151E8002F22F00102DC
:1038D00041E80023002BF5D10168143151E8002F95
:1038E00022F0400241E80023002BF5D1202180F88E
:1038F0003E10016B012909D101680C3151E8002FFC
:1039000022F0100241E80023002BF5D1016B0129C0
:1039100002D0FFF759FB10BD818DFFF726F910BDCE
:1039200010B5806B016B012902D0FFF781FB10BD40
:10393000818D4908FFF719F910BD01680C3151E874
:10394000002F22F4907241E80023002BF5D101688A
:10395000143151E8002F22F0010241E80023002B2E
:10396000F5D1016B012909D101680C3151E8002F13
:1039700022F0100241E80023002BF5D1202180F82D
:103980003E1000210163704701680C3151E8002F9F
:1039900022F0C00241E80023002BF5D1202180F85D
:1039A0003D10704708B590F83E10222901D0022042
:1039B00008BD82684FF480539A4201D1016921B158
:1039C000816A9A421BD04AB10AE00268816A526851
:1039D000C2F308020A80816A891C08E0026972B198
:1039E0000268526802F07F020A70816A491C816293
:1039F000C18D491E0904090CC18503D019E0026874
:103A00005268F1E70168CA6822F02002CA600168C2
:103A1000CA6822F48072CA6001684A6922F0010211
:103A20004A61202180F83E10016B012903D0FFF785
:103A3000CBFA002008BD0021016301680C3151E878
:103A4000002F22F0100241E80023002BF5D101687D
:103A50000A68D20602D50A6849680091818DFFF78D
:103A600084F8E6E770B5044600680169E26821F46D
:103A70004051114301612169A068E269084361690D
:103A8000114308432168CA6849F20C639A43024310
:103A9000CA6020684169A26921F440711143416103
:103AA00031492068884202D03049884202D1FDF76E
:103AB000A5FE01E0FDF792FEE269002319216425CD
:103AC0003226B2F5004F626828D0A0FB0101930FA7
:103AD0009200FCF7D9FB0146B0FBF5F06FF018023D
:103AE000504301EB800006EB0010B0FBF5F000F056
:103AF000F002B1FBF5F002EB0012B1FBF5F06FF054
:103B00001803584301EB800006EB0010B0FBF5F002
:103B100000F00F0021681044886070BDA0FB010117
:103B200092185B41FCF7B0FB0146B0FBF5F00201D7
:103B3000B1FBF5F06FF01803584301EB800006EB82
:103B4000C000B0FBF5F000F0F80002EB4002B1FB62
:103B5000F5F0584301EB800006EBC000B0FBF5F038
:103B600000F00700D6E700000010014000140140FB
:103B700038B58162828500251346044605642220FB
:103B800084F83E00A26B1C48D063A26B1B481064F3
:103B9000A26B1B48D064A06B0A4605652168A06B28
:103BA000091DFDF77DFB206801684068009084F8DE
:103BB0003C50206948B120680C3050E8001F41F4A7
:103BC000807140E80012002AF5D12068143050E8D6
:103BD000001F41F0010140E80012002AF5D12068E1
:103BE000143050E8001F41F0400140E80012002A64
:103BF000F5D1002038BD00009F38000821390008A9
:103C0000553800080148FEF7C7BF00001403002024
:103C10000148FEF7C1BF000058030020FEE703B4CF
:103C200001984100009850EAC12018BF04204A0DB5
:103C300018BF40F0010040F2FF72B2EB515F08BFC5
:103C400040F00200012808BF052002B070470907B4
:103C5000090E002804DB00F1E02080F80014704712
:103C600000F00F0000F1E02080F8141D7047000004
:103C700070B59B482DED020B2DED068B079D25F0B1
:103C80000044A04218DC9748844202DC0AD106981E
:103C900040B19DED060BBDEC068B02B0BDE8704057
:103CA00001F08EBD002DCCBF9FED8F0B9FED900BD3
:103CB000BDEC068B02B070BD8F48A04215DD8F4869
:103CC000A042D8BF4FF0FF3458DD9DED060B51ECFC
:103CD000100BFFF7A4FF042808BF01F0A5FD9DED20
:103CE000060BBDEC068B02B070BD9DED060B51ECD2
:103CF000100B02F096F8CDE9060181489FED828B0A
:103D0000A0423CDD8248A0421FDD00249FED82AB33
:103D10009DED060B53EC1A2B51EC100B02F0DAFB65
:103D20009DED060B41EC190B53EC1A2B51EC100BCB
:103D300002F0B6FE53EC182B03F0BEF853EC192B2F
:103D400002F084FCCDE9060149E09DED060B01245B
:103D500053EC182B51EC100B02F0BCFB9DED060B45
:103D600041EC190B53EC182B51EC100B03F0A4F899
:103D700053EC192B02F06AFCCDE906012FE06848EC
:103D8000A0421FDD02249FED689B9DED060B53ECC6
:103D9000192B51EC100B02F083FE53EC182B02F0A0
:103DA00099FB9DED060B41EC180B53EC192B51ECD4
:103DB000100B03F081F853EC182B02F047FCCDE90F
:103DC00006010CE09DED060B032453EC102B9FED38
:103DD000580B51EC100B02F039FCCDE906019DEDBA
:103DE000060B53EC102B51EC100B02F059FE41EC7A
:103DF000180B53EC182B02F053FE41EC190B4E48F4
:103E00000621B0EE490AF0EE690A784401F0ACFBF5
:103E100053EC182B51EC100B02F042FE41EC180B46
:103E20004648B0EE490AF0EE690A0521784401F0EF
:103E30009BFB53EC192B51EC100B02F031FE41ECC3
:103E4000100B51EC180B53EC102B002C0EDA02F077
:103E500041FB9DED061B53EC112B02F021FE9DED65
:103E6000061B53EC112B02F04FFF35E002F032FB42
:103E70009DED061B53EC112B02F012FE41EC100BD2
:103E80002F48784400EBC40090ED001B51EC100B60
:103E900053EC112B03F010F89DED061B53EC112B86
:103EA00003F00AF841EC100B2648784400EBC400FC
:103EB00090ED001B51EC100B53EC112B02F024FF82
:103EC00041EC100B002DA2BFBDEC068B02B070BD03
:103ED00051EC100B02F0F1FA41EC100B01E700007D
:103EE000000010440000F07F182D4454FB21F93FDE
:103EF000182D4454FB21F9BF0000DC3F0000203E98
:103F00000000F33F00000000000000000000F03F50
:103F10000000E63F0000000000000000000000403C
:103F20000080034000000000000000000000F83F97
:103F3000000000000000F0BF02340000B8330000B1
:103F400042330000FA32000070B56F4E2DED040BC5
:103F50002DED048B82B0DDF824C0DDE907235C423F
:103F60002CF000411C4341EAD474069D22F000402D
:103F7000B44205D86C422C4340EAD474B4420BD905
:103F80009DED081B9DED060B02B0BDEC048B04B04B
:103F9000BDE8704001F01EBCACF14054A4F17F6458
:103FA0001C430BD0022404EAAC7444EAD2740543E7
:103FB0009FED578B9FED582B07D015E09DED060B1D
:103FC00051EC100B01F040FC42E0002C11BF012C21
:103FD0009DED060B02B0BDEC048B04BF04B070BDB8
:103FE000022C38D0032C3BD00B439FED4D1B9FED93
:103FF0004E0B0AD0B14218D1B04209D121F0804114
:1040000020F08040099107900FE0002A15DA10E0B7
:10401000474B7B44002C08BF93ED000B0DD0012CC7
:1040200010D0022C17D0032C1AD0B0421DD1002A78
:1040300003DAB0EE410AF0EE610A02B0BDEC048B87
:1040400004B070BD93ED000B51EC100B02F035FA8B
:1040500041EC100BF1E7B0EE480AF0EE680AECE72D
:10406000B0EE420AF0EE620AE7E7401A00159FED53
:10407000329B3C28C8BF8DED000B17DCBCF1000F54
:10408000BCBF10F13C0F8DED009B0FDB9DED080BCD
:1040900053EC102B9DED060B51EC100B02F0D6FAF1
:1040A00001F0BFFE01F0D0FBCDE90001B4B1012C5D
:1040B00010D0022C9FED220B53EC102B9DED000B2A
:1040C00051EC100B19D002F0F7FE53EC182B02F054
:1040D000F3FEBDE7019880F0004001909DED000BDC
:1040E00053EC192B51EC100B02F008FC04BF02201A
:1040F000FCF770F99DED000B9FE702F0DDFE53EC3D
:10410000182B02F001FEA3E70000F07F0000000082
:10411000182D4454FB210940182D4454FB2109C09B
:10412000182D4454FB21F9BF182D4454FB21F93FAD
:10413000E23200000000000000000000000000006B
:10414000075C143326A6A13C10B52F499FED2C1B0C
:104150002DED020B84B0059820F000408842D8BFB6
:104160009DED040B2DDD2949884209D1049840B901
:104170004FF00100FCF72EF901F036FB06B010BD40
:1041800005DB9DED040B01F01BFB06B010BD68467E
:104190009DED040B00F014FF10F0030004BF9DED33
:1041A000021B9DED000B0CD001280ED09DED021BD3
:1041B0009DED000B022817D0012001F051FA06B046
:1041C00010BD01F019F906B010BD9DED021B9DED6B
:1041D000000B012001F044FA51EC100B02F06DF9D4
:1041E00006B041EC100B10BD01F006F951EC100BBC
:1041F00002F063F906B041EC100B10BD00000000A6
:104200000000000000000000FB21E93F0000F07FFB
:104210002DED020B019820F0004001909DED000B68
:1042200002B07047000000002DE9F04D2DED040BA9
:104230002DED0E8B96B0DDE92550279CDDF890A082
:1042400025F0004624F00048BAF1000F14BF012108
:10425000002101EB4502FC4953184A1093422AD32E
:10426000002814BF0123002303EB44030B44F74948
:104270008B4220D358EA00019FEDF59B76D0DFF802
:10428000D8B35D4503D1BAF1000F05D188E0BAF18A
:10429000000F08BF002100D0012101EB450111F5FD
:1042A000001F08D8002814BF0121002101EB4401A0
:1042B00011F5001F0BD99DED261B9DED240B16B0AB
:1042C000BDEC0E8B04B0BDE8F04D01F083BA0027C1
:1042D000002DBCBFE149884521DAE1498845A8BFE6
:1042E00002271CDAC3451ADCDE4901EB28511429E8
:1042F00008DDC1F1340220FA02F101FA02F2824231
:104300000DD108E058B9C1F1140228FA02F101FAFE
:1043100002F2424503D101F00101C1F1020756EA60
:104320000A0124D1002C22DA002D18BF022F01D05F
:10433000012F0AD00220FCF74DF816B0BDEC0E8B11
:1043400004B0BDE8F04D01F023BA0220FCF742F8BA
:1043500001F01EFA51EC100B02F0AFF841EC100B1B
:1043600016B0BDEC0E8B04B0BDE8F08D18E09FEDEB
:10437000BEAB9FEDBF8B002871D1B848804522D1DC
:1043800005F1804010F5801008BFBAF1000F07D08A
:10439000B3450ADC002CA8BF9DED260BE0DA0DE04A
:1043A000B0EE490AF0EE690ADAE7002C06DA9DED74
:1043B000260B51EC100B02F080F86FE0AE48784409
:1043C00090ED000BCCE7D8454DD1002C48DA2EB14A
:1043D00086423AD1BAF1000F42D126E0BAF1000F7D
:1043E00013D00220FBF7F6FF01F00EFA8DED020B61
:1043F0009DED240B8DED000B10EE900A039961F3F7
:104400001E0003909DED020BAAE78DED02AB9DED22
:10441000240B1AEE901A10EE900A8DED000B61F34A
:104420001E0003909DED020B9AE78DED028B9DED32
:10443000240B18EE901A10EE900A8DED000B61F32C
:104440001E0003909DED020B8AE709DA9DED240B17
:1044500051EC190B53EC102B02F0F8F81EE020E0A1
:104460009DED240B7CE786421BDAB4F1804F0DD022
:10447000A4F10050B0F1FF5013D1002D11DB9DEDE0
:10448000240B51EC100B01F0E1FF07E09DED240B34
:1044900053EC102B51EC100B00F0C2BC41EC100B94
:1044A0005EE79DED240B51EC100B01F0BAFCBAF164
:1044B000000FCDE90E0142D19FED710B46B3A6F17D
:1044C000E040B0F17F600CD05E4538D1002D00DABD
:1044D000A7B3022F0CBF01204FF0FF3002F079FA92
:1044E000DCE7002D01DD002C0DDA002D01DD002CB4
:1044F0001FDB002D16DA002C14DB012F08BF9FED07
:10450000620B3FF42DAFB0EE4A0AF0EE6A0A27E7DD
:10451000022F18BF002D0CD0012F0AD1002DFFF65D
:104520001FAF06E0002DB8BF002C08DA012F3FF4C2
:1045300017AFB0EE480AF0EE680A11E71BE0012061
:1045400000EBE57050EA070115D0791EB0EE498AFC
:10455000F0EE698A084308BF9FED4D8B4E48002559
:10456000804570DD4D494E48884514DDB0420DDB75
:10457000002C19DB2FE00120FBF72CFF16B0BDEC5F
:104580000E8B04B0BDE8F04D01F02EB9B34502DC4E
:10459000002C09DC1FE0864202DA002C1BDA03E063
:1045A0005E452BDD002C16DD0220FBF713FF01F02A
:1045B0002BF98DED020B53EC1A2B51EC180B02F07A
:1045C0006FFACDE900010399019861F31E00039091
:1045D0009DED020BC4E60220FBF7FCFE01F024F97E
:1045E00010EE901A18EE900A8DED020B8DED008BF7
:1045F00061F31E0003909DED020BB1E69DED0E0BE5
:1046000053EC192B51EC100B02F056FC9FED260BCE
:10461000CDE9080153EC102B9DED080B51EC100B6C
:1046200002F03EFA9FED221B53EC112B02F06CFBC3
:104630009DED081B53EC112B02F032FA9FED1E1B6F
:1046400053EC112B3CE08CE0FFFF1F00FFFF0F003D
:10465000000000000000F03F0000F03F0000F07F8D
:104660000000404301FCFFFF000000000000F07F5D
:104670000000000000000000362F000000000000D5
:104680000000000000000080000000000000F0FFBB
:10469000000000000000F0BF0000E0410000F04317
:1046A000FFFFEF3F00000000000000000000D03FCF
:1046B000555555555555D53F000000000000E03FC9
:1046C00002F022FB9DED080B41EC1A0B53EC102B72
:1046D00051EC100B02F0E4F953EC1A2B02F0E0F964
:1046E00041EC1A0B9FEDFE0B53EC102B9DED080BCC
:1046F00051EC100B02F0D4F941EC1B0B9FEDFA0BBF
:1047000051EC1A0B53EC102B02F0CAF941EC1A0BC6
:104710009FEDF70B53EC102B9DED080B51EC100B9C
:1047200002F0BEF953EC1A2B02F0C6FB41EC1A0B57
:1047300051EC1B0B53EC1A2B01F0CCFE0690CDE98B
:1047400006519DED060B53EC1B2B51EC100B02F0A8
:10475000B3FB53EC1A2B02F0D7FA41EC100B00F02C
:10476000A1B90020B6F5801F0EDA9FEDE30B53ECE4
:10477000102B9DED0E0B51EC100B02F091F9CDE9D1
:104780000E016FF034000E4600EB2650A0F2FF370A
:10479000C6F31300DA4940F07F6646F0405688427F
:1047A000D8BF002408DDD7498142C8BF012403DCFB
:1047B0000024A6F580167F1CD348784400EBC40083
:1047C0000F9690ED00CB9DED0E0B53EC1C2B51EC96
:1047D000100B02F071FB9DED0E0B41EC1B0B53EC2B
:1047E0001C2B51EC100B01F075FE41EC100B51EC41
:1047F000190B53EC102B01F029FF41EC1D0B51EC70
:104800001B0B53EC1D2B02F04BF941EC1A0BBF486C
:104810008DED10AB7844109590ED000B4FF00050EB
:1048200040EA660000EB84408DED080B00F50020A7
:1048300009909DED080B53EC1C2B51EC100B02F072
:104840003BFB9DED0E1B53EC112B02F05DFA41EC8E
:10485000100B53EC102B9DED100B51EC100B02F0D4
:104860001FF99DED080B41EC1C0B53EC102B9DED3B
:10487000100B51EC100B02F013F953EC1B2B02F050
:1048800043FA53EC1C2B02F017FB53EC1D2B02F0E8
:1048900007F941EC1C0B53EC1A2B51EC1A0B02F0EC
:1048A000FFF841EC1B0B9A480621B0EE4B0AF0EEE4
:1048B0006B0A784400F058FEB0EE401AF0EE601A31
:1048C000B0EE41DAF0EE61DA53EC1B2B51EC1B0B2E
:1048D00002F0E6F853EC1D2B02F0E2F89DED100B10
:1048E00041EC1B0B53EC1A2B51EC100B01F0F2FDB9
:1048F00053EC1C2B02F0D4F853EC1B2B01F0EAFD17
:104900009DED100B41EC1B0B53EC102B51EC100BDD
:1049100002F0C6F841EC1D0B9FED7FEB53EC1E2B14
:1049200001F0D8FD53EC1B2B01F0D4FD0890CDE92C
:1049300008519DED080B53EC1E2B51EC100B02F0AF
:10494000BBFA53EC1D2B02F0B7FA53EC1B2B02F011
:10495000DBF99DED080B41EC1D0B53EC102B9DED8D
:10496000100B51EC100B02F09BF841EC1B0B53ECBD
:104970001A2B51EC1D0B02F093F89DED080B41EC46
:104980001A0B53EC102B51EC1C0B02F089F853EC72
:104990001A2B01F09FFD41EC1A0B51EC1B0B53EC51
:1049A0001A2B01F097FD0C90CDE90C519DED0C0BED
:1049B00053EC1B2B51EC100B02F07EFA53EC1A2B2C
:1049C00002F0A2F941EC1B0B9FED550B53EC102BA1
:1049D0009DED0C0B51EC100B02F062F841EC1A0B40
:1049E0009FED510B51EC1B0B53EC102B02F058F8C0
:1049F00041EC1B0B9FED4E0B53EC102B9DED0C0B64
:104A000051EC100B02F04CF853EC1B2B01F062FD43
:104A100041EC100B4848784400EBC40090ED001BBB
:104A200051EC100B53EC112B01F054FD41EC1B0B1E
:104A3000384601F0CEFFCDE9080153EC1B2B51ECB9
:104A40001A0B01F047FD41EC100B3C48784400EB99
:104A5000C40090ED00CB51EC100B53EC1C2B01F07B
:104A600039FD9DED081B53EC112B01F033FD069031
:104A7000CDE906519DED080B53EC102B9DED060B77
:104A800051EC100B02F018FA53EC1C2B02F014FA44
:104A900053EC1A2B02F010FA53EC1B2B02F034F9F2
:104AA00041EC100B9DED261B53EC102B8DED001BE4
:104AB00000959DED260B51EC100B01F0F1FF9DEDE3
:104AC000000B41EC1A0B53EC102B9DED260B51EC17
:104AD000100B02F0F1F99DED061B53EC112B2FE0AA
:104AE000000000604715F73FFE822B654715F73F32
:104AF00044DF5DF80BAE543E000000000000404370
:104B00008E9803007AB60B00822A0000E02A00008B
:104B1000BA2900000000000000000000000008406A
:104B2000000000E009C7EE3FFD033ADC09C7EE3F95
:104B3000F5015B14E02F3EBE46280000002800006F
:104B400001F0AEFF53EC1A2B01F0C4FC9DED060BF7
:104B500041EC1A0B53EC102B9DED000B51EC100B9C
:104B600001F09EFFCDE90C019DED0C0B51EC1A0BF1
:104B700053EC102B01F0AEFCCDE902010C46AA4922
:104B80008C422FDB611A084318D19DED0C0B53ECBE
:104B9000102B9DED020B51EC100B02F08DF941EC46
:104BA0001B0B9FEDA30B51EC1A0B53EC102B01F0D8
:104BB00091FC53EC1B2B02F071F82DD20220FBF775
:104BC00009FC00F021FE10EE901A18EE900A8DED0F
:104BD000020B8DED008B61F31E0003909DED020B27
:104BE000FFF7BEBB944A24F00041914214D393498D
:104BF000214408437FF4EFAC9DED0C0B53EC102BDC
:104C00009DED020B51EC100B02F056F953EC1A2BF0
:104C100002F044F87FF6DFAC24F000408849894A6E
:104C2000002601EB205182422BDA481C4FF4801100
:104C300021FA00F02044844AC0F30A517A44A1F2D8
:104C4000FF3192ED000B814A8DED080BCA4020EA3E
:104C50000202C0F3130040F48010C1F1140120FAE5
:104C600001F60992002CB8BF76429DED080B53EC7B
:104C7000102B9DED0C0B51EC100B02F01DF9CDE942
:104C80000C019DED0C0B51EC1A0B53EC102B01F0A9
:104C900021FC9FED6F0B0890CDE9085153EC102BD0
:104CA0009DED080B51EC100B01F0FAFE41EC1B0BD3
:104CB0009FED690B53EC102B9DED080B51EC100B85
:104CC00001F0EEFE9DED0C0B41EC1C0B53EC102B98
:104CD0009DED080B51EC100B02F0EEF853EC1A2B83
:104CE00002F012F89FED5E1B53EC112B01F0D8FE81
:104CF00053EC1C2B01F0EEFB41EC1A0B51EC1B0B9F
:104D000053EC1A2B01F0E6FBCDE902019DED020BFD
:104D100053EC1B2B51EC100B02F0CEF853EC1A2B7A
:104D200001F0F2FF9DED020B41EC1A0B53EC102B3E
:104D300051EC100B01F0B4FECDE908014A489DED9D
:104D4000080B0521784400F00FFC9DED081B51EC89
:104D5000100B53EC112B01F0A3FE9DED021B53EC45
:104D6000112B01F0D1FFCDE906019DED020B53ECB3
:104D70001A2B51EC100B01F093FE53EC1A2B01F09F
:104D8000A9FB9FED3B0B41EC1A0B53EC102B9DED57
:104D9000060B51EC100B02F08FF89DED060B41EC69
:104DA0001B0B53EC102B9DED020B51EC100B01F083
:104DB00077FE53EC1B2B01F049FC53EC1A2B02F04D
:104DC0007BF89DED021B53EC112B02F075F853ECB0
:104DD000192B01F099FFCDE9020101EB06500115F5
:104DE0000029C8BF039015DC9DED020B324651EC43
:104DF000100B02F082F9FEF712FF042808BF00F042
:104E000013FD32469DED020B51EC100B02F075F9CB
:104E1000CDE902019DED020B51EC180B53EC102B68
:104E200001F03EFEFFF73ABB00009040000000009A
:104E3000FE822B654715973C00CC904000346F3FB5
:104E400001FCFFFF0000E03FB8260000FFFF0F005D
:104E500000000000432EE63F396CA80C615C20BEC8
:104E6000EF39FAFE422EE63F582500000000000010
:104E7000000000000000004010B52F499FED2C1BE2
:104E80002DED020B84B0059820F000408842DCBF75
:104E900000209DED040B32DD2849884209D1049899
:104EA00040B94FF00100FBF795FA00F09DFC06B009
:104EB00010BD05DB9DED040B00F082FC06B010BDBB
:104EC00068469DED040B00F07BF810F0030011D054
:104ED000012818D09DED021B9DED000B02281AD071
:104EE00000F08AFA51EC100B01F0E7FA06B041EC41
:104EF000100B10BD9DED021B9DED000B012000F07D
:104F0000AFFB06B010BD9DED021B9DED000B00F048
:104F100073FA06B010BD012000F0A2FB51EC100B9B
:104F200001F0CBFA06B041EC100B10BD0000000000
:104F30000000000000000000FB21E93F0000F07FBE
:104F400000B52DED048BB0EE409AF0EE609A83B080
:104F500051EC190B01F0E4FE41EC180B18EE100AAD
:104F600018EE901A8DED008B002818BF0120084321
:104F700020F00040C0F17F6000F1E040C00F14D08D
:104F800019EE101A19EE900A8DED009B002918BF3A
:104F90000121084320F00040C0F17F6000F1E040B3
:104FA000C00F04BF0120FBF715FAB0EE480A03B0AA
:104FB000F0EE680ABDEC048B00BD000000000000AC
:104FC0002DE9F14F04462DED020B2DED088B8AB033
:104FD0009FEDE70B80ED020B139EE74826F000459E
:104FE00085420ADC9DED120B002084ED000B0AB017
:104FF000BDEC088B03B0BDE8F08FE0489FEDE0AB5F
:105000009FEDE1BBA84247DDE14F9FEDE39B9FEDA4
:10501000E48B9DED120B53EC1A2B51EC100B002E70
:105020001CDD01F049FF41EC100BBD4208D053ECF0
:105030001B2B51EC100B01F03FFFC4E900010BE00A
:1050400053EC192B51EC100B01F036FF53EC182BDD
:1050500001F032FFC4E900010120C8E701F03AFA8B
:1050600041EC100BBD4208D053EC1B2B51EC100B44
:1050700001F030FAC4E900010BE053EC192B51ECBC
:10508000100B01F027FA53EC182B01F023FAC4E9B6
:1050900000014FF0FF30AAE7C348A84279DB9DED3D
:1050A000120B51EC100B00F0BCFE41EC180B9FED05
:1050B000C00B53EC102B01F0F3FC9FEDBF1B53EC26
:1050C000112B01F007FA01F055FC074601F081FCB5
:1050D00041EC190B53EC1A2B01F0E2FC53EC182BAA
:1050E00001F012FE41EC180B53EC1B2B51EC190B89
:1050F00001F0D6FCDFF8C8A241EC100B4FEA1558BE
:105100000125FA4453EC102B51EC180B01F0D4FE9E
:10511000032DC4E900013DD0C1F30A5005EB451150
:10512000A8EB00001139814234DA0AEB051BB0EE1E
:1051300048AA9BED000BF0EE68AA53EC102B51EC43
:10514000190B01F0ADFC41EC1B0B51EC1A0B53ECAD
:105150001B2B01F0B1FE41EC180B51EC1A0B53EC78
:10516000182B01F0A9FE53EC1B2B01F0A5FE9BEDC3
:10517000020B41EC1A0B53EC102B51EC190B01F004
:105180008FFC53EC1A2B01F097FE41EC100B6D1CB9
:10519000B8E70EE0002EA8BF3846BFF628AF94ED62
:1051A000000B51EC100B01F088F9C4E900017842C2
:1051B0001DE7C6F3130040F4801EC6F30A50A0F2A8
:1051C000F530471100F01F05C5F12000DDF848B0AB
:1051D00008900020069007900520EC467949002DA4
:1051E00007EB0002794408BF51F8221009D051F8AA
:1051F000223001EB8201AB404A68089922FA01F1A2
:105200001943A1FB0E26A1FB0B131A449A4234BF8B
:105210000123002303EB06080CEB8003D3E901A66E
:105220000E448E4234BF0121002192448A4411B1C0
:10523000924502D903E0924501D2012100E000210C
:10524000C3E901A641444CF82010011EA0F1010061
:10525000C4DC029800F10050850F0298DDE9036775
:105260008000DDF8148001F0B4FB41EC1A0B3046ED
:1052700001F0C6FB9FED541B53EC112B01F010FC09
:1052800041EC1B0B384601F0BBFB9FED511B53EC6F
:10529000112B01F005FC41EC180B404601F0B0FB6E
:1052A0009FED4D1B53EC112B01F0FAFB41EC190B58
:1052B00051EC180B53EC192B01F00CF953EC1B2B90
:1052C00001F008F953EC1A2B01F004F9CDE90801BB
:1052D000002008909DED080B53EC1A2B51EC100B9D
:1052E00001F0EAFD53EC1B2B01F0E6FD53EC182B0B
:1052F00001F0E2FD53EC192B01F006FD9FED381B88
:1053000053EC112B01F0CCFB9FED370B41EC180B4C
:1053100053EC102B9DED080B51EC100B01F0C0FB72
:1053200053EC182B01F0D6F89FED310B41EC180B24
:1053300053EC102B9DED080B51EC100B01F0B0FB62
:1053400053EC182B01F0C6F841EC100B139810F039
:10535000004F06D06D4251EC100B01F0AEF841EC5D
:10536000100B284684ED000B41E600000000000011
:105370000000000000000000FB21E93F7CD9024052
:1053800000004054FB21F93F3163621A61B4D03D03
:10539000FB21F93F000000000000601A61B4D03D1D
:1053A0007370032E8A19A33BFB21394100000000D2
:1053B00083C8C96D305FE43F000000000000E03F9B
:1053C000FA21000048210000000000000000103E0B
:1053D000000000000000103C000000000000103A37
:1053E000182D4454FB21F93D3326A611460B113CE0
:1053F00000000054FB21F93D10B52DED040B2DEDFF
:10540000088B82B0B0EE419AF0EE619A0B9820F0D2
:1054100000449FED4BABB4F1795F11DA9DED0A0BBF
:1054200051EC100B01F0A6FA002801BFB0EE4A0AB9
:10543000F0EE6A0A02B0BDEC088B04BF04B010BDE8
:105440009DED0A0B53EC102B51EC100B01F028FBD7
:1054500041EC180B3C480621B0EE480AF0EE680A11
:10546000784400F081F853EC182B51EC100B01F04C
:1054700017FB9DED0A0B41EC1B0B53EC192B51EC68
:10548000100B01F00DFB41EC190B53EC1B2B51ECF5
:10549000180B01F005FB53EC192B01F00DFD9FEDEE
:1054A0002C0B41EC190B53EC102B51EC180B01F0A9
:1054B000F7FA41EC100B2848844210DA53EC192B10
:1054C00051EC100B01F0F8FC53EC1A2B01F01CFC12
:1054D00041EC100B02B0BDEC088B04B010BD1F48AE
:1054E000A042BCBF9FED1E1B8DED001B06DBA4F58B
:1054F00000100190002000909DED001B51EC100B5E
:1055000053EC112B01F0D8FC9DED000B41EC180B76
:1055100053EC102B51EC1A0B01F0CEFC41EC1A0BA2
:1055200053EC192B51EC180B01F0C6FC53EC1A2B61
:1055300001F0EAFB41EC100BCCE70000000000009A
:10554000000000000000F03F641E000000000000AA
:10555000000000000000E03F3333D33F0000E93F8C
:10556000000000000000D23F70B504462DED028B14
:105570004D1E00EBC500B0EE408AF0EE608A90ED63
:10558000000B35F0060017D053EC182B51EC100B24
:1055900001F086FA41EC100B6D1E04EBC50090ED96
:1055A000001B51EC100B53EC112B00F093FF41EC5E
:1055B000100B35F00600E7D1022D36D0042D1CD09B
:1055C000062D1CBFBDEC028B70BD53EC182B51ECAB
:1055D000100B01F065FA94ED0A1B53EC112B00F04F
:1055E00079FF53EC182B01F05BFA94ED081B53EC98
:1055F000112B00F06FFF41EC100B53EC182B51EC0A
:10560000100B01F04DFA94ED061B53EC112B00F03A
:1056100061FF53EC182B01F043FA94ED040B53ECAB
:10562000102B00F057FF41EC100B53EC182B51ECF2
:10563000100B01F035FA94ED021B53EC112B00F026
:1056400049FF53EC182B01F02BFA94ED001B53EC9F
:10565000112B00F03FFFBDEC028B41EC100B70BD35
:1056600031B504462DED040B2DED0A8BB0EE41BA99
:10567000F0EE61BA0B989DED0A0B20F00040B0F1FE
:10568000795F0DDA51EC100BFEF7C9FA042808BF58
:1056900000F0CAF89DED0A0BBDEC0A8B05B030BDD9
:1056A00053EC102B51EC100B01F0FAF941EC180BF4
:1056B0009DED0A0B53EC182B51EC100B01F0F0F997
:1056C00041EC190B2C48B0EE480AF0EE680A0521AF
:1056D0007844FFF749FF9FED2ACBB0EE40AAF0EEE9
:1056E00060AA9CB353EC1C2B51EC190B01F0D8F9B8
:1056F00041EC1C0B53EC1A2B51EC190B01F0D0F9B7
:105700009FED210B41EC190B53EC102B51EC1B0BB3
:1057100001F0C6F953EC192B01F0CEFB53EC182B1A
:1057200001F0BEF953EC1B2B01F0C6FB53EC1C2B14
:1057300001F0C2FB9DED0A1B53EC112B01F0E4FAC2
:10574000BDEC0A8B05B041EC100B30BDFFE753EC0C
:105750001A2B51EC180B01F0A3F953EC1C2B00F0A1
:10576000B9FE53EC192B01F09BF99DED0A1B53EC8C
:10577000112B00F0AFFEE3E7F41C00000000000076
:10578000495555555555C5BF000000000000E03F84
:105790009FED070B10B553EC102B9FED070B51EC51
:1057A000100B00F053FF41EC100B10BD0000000087
:1057B0000000000000000000000000000000F03FBA
:1057C00010B553EC102B51EC100B00F083FE41ECA4
:1057D000100B10BD10B553EC112B51EC100B00F059
:1057E00079FE41EC100B10BD9FED050B10B553EC8D
:1057F000102B51EC100B00F029FF41EC100B10BDE9
:1058000000000000000000009FED050B10B553ECF8
:10581000102B51EC100B01F043F941EC100B10BDB3
:1058200000000000000000709FED050B10B553EC68
:10583000102B51EC100B01F033F941EC100B10BDA3
:10584000000000000000001010B541EC100BFEF746
:105850000FFA51EC100B10BD00B58BB000200121E8
:10586000CDE9060108910090019002900390059007
:10587000049069460548FAF7BFFF0448FBF748FB68
:1058800002210248FAF737FF0BB000BD700200207A
:105890000188B0F90820891A41F28832914202DD6C
:1058A000C168491E05E041F28832D14202DAC1687E
:1058B000491CC1607047000010B52DED108BB0EE93
:1058C000428AF0EE628AB0EE41BAF0EE61BAB0EE12
:1058D00040CAF0EE60CA9FEDF6DBF74C9FEDF7EBA8
:1058E0009FEDF8AB9FEDF99BB0EE4A0AF0EE6A0A25
:1058F000FFF726FB53EC182B51EC100B01F0D0F8FE
:1059000053EC192B01F0CCF853EC1C2B01F0FCF9F3
:1059100041EC100BB0EE4A1AF0EE6A1AFEF784FC66
:10592000B0EE40FAF0EE60FAB0EE4A0AF0EE6A0A23
:10593000FFF706FB53EC182B51EC100B01F0B0F8FD
:1059400053EC192B01F0ACF853EC1B2B01F0DCF9F4
:1059500041EC100BB0EE4A1AF0EE6A1AFEF764FC46
:10596000B0EE401AF0EE601A53EC1F2B51EC110B05
:1059700000F0B0FD41EC100BFFF7E2FAFEF748FC37
:1059800053EC1D2B51EC100B01F088F94CD2B0EE0A
:105990004A0AF0EE6A0AFFF7D3FA53EC182B51ECDF
:1059A000100B01F07DF853EC192B01F079F853EC52
:1059B0001C2B01F0A9F941EC100BB0EE4A1AF0EEE5
:1059C0006A1AFEF731FCB0EE40FAF0EE60FAB0EE83
:1059D0004A0AF0EE6A0AFFF7B3FA53EC182B51ECBF
:1059E000100B01F05DF853EC192B01F059F853EC52
:1059F0001B2B01F089F941EC100BB0EE4A1AF0EEC6
:105A00006A1AFEF711FCB0EE401AF0EE601A53EC81
:105A10001F2B51EC110B00F05DFD41EC100BFFF75B
:105A20008FFA84ED0C0B01E084ED0CEBB0EE4A0A2A
:105A3000F0EE6A0AFFF784FA53EC182B51EC100BC6
:105A400001F02EF853EC192B01F02AF853EC1C2B23
:105A500001F05AF941EC100BB0EE4A1AF0EE6A1A56
:105A6000FEF7E2FBB0EE40FAF0EE60FAB0EE4A0A62
:105A7000F0EE6A0AFFF764FA53EC182B51EC100BA6
:105A800001F00EF853EC192B01F00AF853EC1B2B24
:105A900000F020FD41EC100BB0EE4A1AF0EE6A1A4D
:105AA000FEF7C2FBB0EE401AF0EE601A53EC1F2B6B
:105AB00051EC110B00F00EFD41EC100BFFF740FA1A
:105AC000FEF7A6FB53EC1D2B51EC100B01F0E6F892
:105AD0004CD2B0EE4A0AF0EE6A0AFFF731FA53EC04
