:020000040800F2
:10000000000F002029020008BB340008B92D0008A9
:10001000B934000851040008193A00080000000033
:10002000000000000000000000000000BF340008D5
:10003000D106000800000000BD340008C1340008EB
:10004000430200084302000843020008430200087C
:10005000430200084302000843020008430200086C
:100060004302000843020008DB06000843020008C0
:100070001506000843020008210600084302000894
:100080004302000843020008430200084905000833
:100090003D0500084302000843020008E10600088D
:1000A000430200086D3500084302000843020008BF
:1000B000430200084302000843020008430200080C
:1000C00043020008430200084302000843020008FC
:1000D0004302000843020008013A00080D3A0008F4
:1000E000D306000843020008430200084302000848
:1000F00043020008430200084302000843020008CC
:1001000043020008430200084302000843020008BB
:1001100043020008430200084302000843020008AB
:10012000430200084302000843020008430200089B
:10013000430200084302000843020008A905000822
:100140009D0500084302000843020008430200081E
:10015000430200084302000843020008430200086B
:10016000430200084302000843020008430200085B
:100170004302000843020008430200080000000098
:10018000430200084302000800F002F800F03CF8C7
:100190000AA090E8000C82448344AAF10107DA45E2
:1001A00001D100F031F8AFF2090EBAE80F0013F0F8
:1001B000010F18BFFB1A43F001031847B473000086
:1001C000D4730000103A24BF78C878C1FAD8520717
:1001D00024BF30C830C144BF04680C6070470000C1
:1001E0000023002400250026103A28BF78C1FBD840
:1001F000520728BF30C148BF0B6070471FB507F0DA
:1002000003F81FBD10B510BD00F0E2F81146FFF76E
:10021000F5FF05F0C3FE00F000F903B4FFF7F2FFAD
:1002200003BC00F003F90000094880470948004773
:10023000FEE7FEE7FEE7FEE7FEE7FEE7FEE7FEE796
:10024000FEE7FEE704480549054A064B70470000F3
:100250005D3500088901000800090020000F00201A
:10026000000B0020000B002053EA020C00F0698014
:100270002DE9F04B4FF00006002B1FBFB3FA83F5BA
:1002800003FA05F424FA05F65E4012BF1643B2FAEB
:1002900082F502FA05F4C5F120051EBF22FA05FC1D
:1002A00044EA0C04203556EA044C4FEA144418BFC3
:1002B000641C4FF000084FF00009904271EB030CF2
:1002C00039D3002919BFB1FA81F701FA07F6B0FA5C
:1002D00080F700FA07F6C7F120071EBF20FA07FCD7
:1002E00046EA0C062037B6FBF4FCA7EB0507103FE7
:1002F00007F01F0BCBF120060CFA0BFB2CFA06F6CD
:1003000044BFB3460026202FA4BF5E464FF0000B2B
:100310005BEA060C08BF4FF0010B19EB0B09ABFBB6
:10032000027C48EB0608C01B06FB02CC0BFB03CC8F
:1003300071EB0C01C1E70B46024641464846BDE859
:10034000F08B13B54FF000004FF00001AFF30080C9
:10035000BDE81C4070474FF0000200B513469446BC
:100360009646203922BFA0E80C50A0E80C50B1F10D
:100370002001BFF4F7AF090728BFA0E80C5048BF21
:100380000CC05DF804EB890028BF40F8042B08BFBF
:10039000704748BF20F8022B11F0804F18BF00F8BB
:1003A000012B704770477047704710B500F008F890
:1003B000006810BD10B5044600F002F8046010BDDE
:1003C00000487047A008002000487047A00800209F
:1003D0007546FFF7F9FFAE4605006946534620F023
:1003E0000700854618B020B5FFF72CFFBDE8204078
:1003F0004FF000064FF000074FF000084FF0000BE1
:1004000021F00701AC46ACE8C009ACE8C009ACE893
:10041000C009ACE8C0098D46704710B50446AFF37B
:1004200000802046BDE81040FFF7F7BE01491820C4
:10043000ABBEFEE72600020070470000034880EDD7
:10044000040B80ED021B80ED002B7047100800208C
:10045000FEE700002DE9F04F2D4C2078AA2854D15A
:10046000207CDD2851D10E21A01C00F0C7F82949BD
:1004700008706178814248D1DFF89CC0B4F902006D
:10048000DFF898A0ACF80000B4F90450DFF890E071
:10049000AAF80050B4F90630DFF888B0AEF80030A2
:1004A000B4F90820204EABF80020B4F90A10DFF8A8
:1004B0007C903180B4F90C601D4FA9F800605FEAB0
:1004C000004800D53843ACF800005FEA054C00D581
:1004D0003D43AAF800501D0400D53B43AEF8003060
:1004E000130400D53A43ABF800200F480A0400D5A6
:1004F00039430180310400D53E430E48A9F800601D
:100500000D49A27B0270E07B0870BDE8F08F00000F
:10051000500200209E0000201A0000201C00002035
:100520001E00002020000020980000209A000020DB
:100530000000FFFF9C0000209D000020014800F00B
:1005400056BA000084020020014800F050BA0000B2
:100550008402002038B50E4C4FF40075256000254C
:10056000A560E560082525610A4C050A25706070C4
:10057000080AA070E170100A20716271180AA07157
:10058000E3716B4622460249034800F0C7F838BDC4
:10059000C00100200200002084020020014800F079
:1005A00026BA0000AC020020014800F020BA00008A
:1005B000AC02002038B50E4C4FF4007525600025C4
:1005C000A560E560082525610A4C050A2570607064
:1005D000080AA070E170100A20716271180AA071F7
:1005E000E3716B4622460249034800F097F838BD94
:1005F000D80100200A000020AC020020034610B5FC
:100600000120002202E09C5C6040521C8A42FADB1E
:1006100010BD0000014800F009BD0000B00300203B
:10062000014800F003BD00001004002001681823F9
:10063000CAB2103AB2FBF3F2054B6FF30901032A79
:100640009B5CC36500D9091D8165084670470000A1
:100650000273000810B5014600208B698A6A4FF0CA
:10066000C07453B1B3F5005F15D072B1012A0CD03C
:10067000022A0AD0032A09D104E01AB1012A06D0BD
:10068000022A03D1C96AC90100D5012010BDC96A77
:10069000A142FAD010BD002AF7D0012AF2D0022AD6
:1006A000F3D0032AF3D010BD30B50468256825F4D3
:1006B00080252560046863608368402B036803D04D
:1006C00099600068C26030BD9A600068C16030BD4A
:1006D00070474FF4805000F059BE102000F056BE15
:1006E00010B5402000F052FEBDE810404FF480707D
:1006F00000F04CBE72B6FEE790F82020012A07D029
:10070000022A05D0416A41F48021416201207047EC
:10071000006842690A43426100207047F0B590F8D2
:1007200020500468A468012D05D0022D03D0416A31
:1007300041F480215DE014F0406F01D1E50055D512
:10074000C4F30164022C03D9416A41F4000150E072
:100750000125A5401D608D684FF4C0739DB1CE6822
:1007600035434E6845EAC605066803EB0417F551A4
:100770004FF4C275076805EB04150E697E51097DBB
:10078000012905D009E00E88CD6845EA4655EBE71A
:1007900001684E5946F480764E511179D5795679D3
:1007A00041EA056195792D0445EA062529434FF470
:1007B000C676056806EB0416A9511178D57841EA8A
:1007C0000561957852782D0445EA022211434FF4D1
:1007D000C475026805EB04155151006803EB041160
:1007E000425842F0010242500020F0BD416A41F4FB
:1007F000001141620120F0BD10B590F82020012ABF
:1008000007D0022A05D0416A41F4802141620120CB
:1008100010BD3B48D0F8002242F00102C0F800228F
:10082000D0F8002222F47C52C0F80022D0F8002236
:100830004B6A42EA0322C0F800220A7D02F01F033D
:1008400001229A40D0F81C329343C0F81C32CB6985
:10085000B3B9D0F80C329343C0F80C328C894B6892
:1008600064F31F434C6900EBC404C4F840320C89A4
:100870000B6864F31F434C6900EBC404C4F84432B2
:10088000CB69012B16D1D0F80C321343C0F80C32CF
:100890000C884B6864F31F434C6900EBC404C4F834
:1008A00040320C89CB6864F31F434C6900EBC404ED
:1008B000C4F844328B69002BD0F804320ED01343B5
:1008C000C0F804320B69002BD0F8143208D013435F
:1008D000C0F81432096A012904D008E09343EFE715
:1008E0009343F5E7D0F81C121143C0F81C12D0F85E
:1008F000001221F00101C0F80012002010BD00001C
:1009000000640040704730B590F82040012C05D0BD
:10091000022C03D0416A41F480215DE00468002983
:1009200055D02469A40754D04FF4D874056804EB5B
:1009300001142D5915F00405956005682D594ED008
:10094000ED08556005682C5904F00204D4604FF49A
:10095000DA74056804EB01142D5905F00F051561D3
:1009600005682D59C5F30725956105682C59240C98
:1009700054614FF4DC72046802EB0112A4581C703D
:100980000468A458240A5C700468A458240C9C7061
:100990000468A258120EDA704FF4DE72046802EB9B
:1009A0000112A4581C710468A458240A5C710468DC
:1009B000A458240C9C710468A258120EDA710068C5
:1009C00081B1016941F020010161002030BDE4687E
:1009D000A8E7416A41F400114162012030BD6D0D6C
:1009E0001560AFE7C16841F02001C160EDE72DE976
:1009F000F05F0546006800244669D0F804908768D7
:100A0000D0F80CB0D0F810A0D0F81880F10748D07A
:100A1000F90714D001218160B80703D5284600F0FA
:100A2000A4FA0CE0780702D54FF4006407E0380719
:100A300002D54FF4805402E0284600F095FAF805FC
:100A400016D529684FF480708860B80503D528460C
:100A500000F08DFA0CE0780502D544F4005407E06C
:100A6000380502D544F4804402E0284600F07EFABE
:100A7000F80316D529684FF480308860B80303D591
:100A8000284600F076FA0CE0780302D544F40044DE
:100A900007E0380302D544F4803402E0284600F031
:100AA00067FA300707D55FEACB6004D529681020C4
:100AB00044F40074C86070074FF0080707D55FEA78
:100AC0000B7004D52868C760284600F0A9F9B00764
:100AD00006D52868C068800702D0284600F0A2F931
:100AE000700607D55FEACA6004D52968102044F46F
:100AF00080640861B00607D55FEA0A7004D52868EB
:100B00000761284600F000FAF00606D5286800695B
:100B1000800702D0284600F0F8F9B00308D55FEA54
:100B2000C96005D5296810204860284600F0EEF914
:100B3000F00307D55FEA097004D5286847602846A6
:100B400000F018FA300446D55FEA497040D5F00548
:100B500004D55FEAC87001D044F00104B00504D5A3
:100B60005FEA887001D544F00204700504D55FEA9D
:100B7000487001D544F00404300529D518F0700FF1
:100B800026D008F07000402815D006DC102809D0C7
:100B900020280AD0302816D10AE050280ED060282C
:100BA00011D10EE044F008040DE044F010040AE016
:100BB00044F0200407E044F0400404E044F08004E2
:100BC00001E044F480742868816921F0700181613A
:100BD000296804204860002C05D0686A20436862B8
:100BE0002846FFF78FFEBDE8F09F70B5040003D0E4
:100BF00094F8200010B104E0012070BD204600F000
:100C000081F82068016841F00101016000F0C2FC38
:100C10000546052604E000F0BDFC401B0A2811D85B
:100C200020684068C007F6D02068016821F0020102
:100C3000016000F0AFFC05460BE000F0ABFC401B90
:100C40000A2806D9606A40F40030606284F82060A7
:100C5000D2E7206840688007EFD4207E0128206812
:100C600001683DD021F080010160607E012820688C
:100C7000016838D021F040010160A07E0128206881
:100C8000016833D021F020010160E07E0128206856
:100C900001682ED041F010010160207F01282068FA
:100CA000016829D021F008010160607F01282068D7
:100CB000016824D021F004010160D4E90201084355
:100CC000D4E90412114308436168491E08432168AE
:100CD000C86100206062012084F82000002070BDFF
:100CE00041F08001C0E741F04001C5E741F020013B
:100CF000CAE721F01001CFE741F00801D4E741F045
:100D00000401D9E7F0B587B0044614216846FFF71F
:100D100022FB3E4B3E48DFF8F0E01968D4F800C0F3
:100D20003B4A03250226092710300024491CF445BC
:100D30002AD11960012907D1016841F000710160D1
:100D4000006800F000700590106840F00800106026
:100D50001068CDE9005600F00800CDE9047069463E
:100D60002C48CDE9024500F01DFB00220221132092
:100D700000F0B2FC132000F0A1FC0022022114209C
:100D800000F0AAFC14203AE0DFF88CE0F44538D1FA
:100D9000D0F800C04CF0806CC0F800C0D0F800C0A3
:100DA00001290CF0806CCDF814C0196007D10168DE
:100DB00041F000710160006800F00070059010685B
:100DC00040F002001060106802AB00F002000590D5
:100DD0006020CDE9000683E8B00069460F4800F0C6
:100DE000E1FA002211463F2000F076FC3F2000F09F
:100DF00065FC00221146402000F06EFC402000F00F
:100E00005DFC07B0F0BD000000640040A0000020C1
:100E100030380240000C02400068004000040240EC
:100E20007047000030B505463348344C8BB08542DE
:100E30002DD101AB03AA00212846FFF764FD0398DA
:100E4000A0F50071013905D0012903D0022901D094
:100E5000032918D1401EC0B22949207001EB0010AF
:100E600001880181BDF8041049BA0180BDF806105F
:100E700049BA4180BDF8081049BA81809DF80A102E
:100E8000817104F017FD02211B48FFF735FC1D4856
:100E900085422ED102AB04AA00212846FFF733FD7C
:100EA0000498A0F50071013905D0012903D0022969
:100EB00001D0032919D1401E1149C0B260707031B0
:100EC00001EB001001880181BDF8081049BA0180CA
:100ED000BDF80A1049BA4180BDF80C1049BA8180AA
:100EE0009DF80E10817104F0E5FC02210548FFF722
:100EF00003FC0BB030BD0000840200200000002085
:100F0000C0000020AC02002070477047704700000E
:100F100070B5044690F82000012804D0606A40F4BF
:100F20000020606218E0022084F820002068016838
:100F300021F00101016000F02DFB05460EE000BF2D
:100F400000F028FB401B0A2808D9606A40F40030F2
:100F50006062052084F82000012070BD2068406890
:100F6000C007EDD1606270BD704770477047704731
:100F70007047704770472DE9F0410446876D00F0D7
:100F800009FB064694F835000025022806D080208B
:100F9000606584F834500120BDE8F0812068016864
:100FA00021F0160101602068416921F08001416152
:100FB000206C08B9A06C20B12068016821F00801FC
:100FC00001602068016821F0010101600CE000F07F
:100FD000E1FA801B052807D920206065032084F8EA
:100FE000350084F83450D7E720680068C007EED198
:100FF00094F85C103F208840B860012084F83500E8
:1010000084F834500020C7E790F83510022903D047
:101010008021416501207047052180F83510006866
:10102000016821F001010160002070472DE9F843BB
:1010300004464FF00009CDF8009063484FF4165174
:10104000A56D0068B0FBF1F72E6894F85C100820DD
:1010500000FA01F131420FD021680A6852070BD51E
:101060000A6822F004020A6094F85C108840A860C4
:10107000606D40F00100606594F85C104FF001086D
:1010800008FA01F0304208D021684969090604D500
:10109000A860606D40F00200606594F85C10042068
:1010A0008840304208D021680968890704D5A860C3
:1010B000606D40F00400606594F85C10102088407A
:1010C000304218D021680968090714D5A860206843
:1010D0000168490304D50068000308D5A16C07E046
:1010E0000168C90503D4016821F008010160216C81
:1010F00009B12046884794F85C102020884030428F
:1011000031D021680968C9062DD5A86094F835004A
:1011100005282068016806D0490347D50068000308
:101120001DD4616C1CE021F016010160206841694A
:1011300021F080014161206C08B9A06C20B12068C9
:10114000016821F00801016094F85C103F2088409C
:10115000A86084F8358084F83490216D1FE0E16B3D
:1011600009B120468847606D00282BD0606DC0070C
:1011700014D0052084F835002068016821F00101B1
:1011800001600098401C0090B84203D820680068B5
:10119000C007F6D184F8358084F83490E16C0029DA
:1011A00010D001B02046BDE8F04308470168C905EA
:1011B000D5D4016821F01001016084F8358084F8ED
:1011C0003490CCE7BDE8F883B00000202DE9F04171
:1011D000044600F0DFF906465CB1022084F83500D1
:1011E000002584F834502068016821F00101016075
:1011F0000DE00120BDE8F08100F0CCF9801B05284E
:1012000005D920206065032084F83500F2E72068C6
:101210000068C007F0D12268116820480140D4E975
:1012200001031843D4E90336334318436369184371
:10123000A3691843E3691843236A18430843616AA2
:10124000042903D1D4E90B13194308431060206823
:101250004069666A20F0070130460E4301270428E2
:101260000CD1A06A0643E06A40B12046FFF7F2F9CC
:1012700020B14020606584F83570BAE72068466187
:101280002046FFF7D3F994F85C203F21914081601C
:10129000656584F835700020ACE700003F8010F0F1
:1012A0002DE9F0410446866D90F8340000250128B0
:1012B0000DD0012084F8340094F835700020012FFF
:1012C00007D084F8340002252846BDE8F0810220CA
:1012D000FBE7022784F8357060652046FFF7E4F9E4
:1012E00094F85C103F208840B0602068016841F0AD
:1012F00016010160206C20B12068016841F00801EE
:1013000001602068016841F001010160DCE7000034
:1013100070B51C491C4C012541F28836B0F5805F40
:1013200013D010281AD0402821D0B0F5807F27D1C3
:1013300091ED300B51EC100B05F0DAFBE561E0604C
:101340003046BDE8704004F0FFBD91ED060B51EC56
:10135000100B05F0CDFB25612060F1E791ED140B3A
:1013600051EC100B05F0C4FB65616060E8E791ED9E
:10137000220B51EC100B05F0BBFBA561A060DFE771
:1013800070BD00007004002064020020044910B504
:101390000A68024202D00860FFF7BAFF10BD0000E1
:1013A000143C01402DE9F84FDFF8BCA100220125D3
:1013B00003264FF00F090AF1040BAAF1040E00BF37
:1013C0000B6805FA02F42340A34270D10F7907F0AD
:1013D0000307012F01D0022F16D187684FEA420878
:1013E00006FA08FC27EA0C07D1F80CC00CFA08FC36
:1013F0004CEA070CC0F808C04768A7430C79C4F34F
:10140000001494403C4344600C79E443A4070AD0A0
:10141000C4684FEA420C06FA0CF7BC438F6807FA1F
:101420000CF72743C7600C7904F00304022C12D197
:10143000D40800EB840CDCF820405707FF0E09FAB3
:1014400007F824EA0804D1F8108008FA07F848EAF7
:101450000408CCF8208004684FEA420C06FA0CF726
:10146000BC430F7907F0030707FA0CF7274307601F
:101470004C6814F4403F70D03C4C276847F48047D8
:101480002760246822F0030704F480440094384C59
:1014900007EB040CDCF8084897074FEA177809FABD
:1014A00008F7BC43334FB84202D1002724E054E090
:1014B000314FB84201D101271EE0304FB84201D16F
:1014C000022719E02E4FB84201D1032714E02D4F17
:1014D000B84201D104270FE02B4FB84201D10527B4
:1014E0000AE02A4FB84201D1062705E0284FB8424A
:1014F00001D1072700E0082707FA08F72743CCF8AF
:101500000878DAF800405746D1F804C09C435FEAF7
:10151000CC2C00D51C433C60DBF800405F46D1F882
:1015200004C09C435FEA8C2C00D51C433C60DEF871
:1015300000407746D1F804C09C435FEA8C3C00D55C
:101540001C433C60084F083F3C68D1F804C09C43F2
:101550005FEACC3C00D51C433C60521C102AFFF4CF
:101560002FAFBDE8F88F0000083C0140443802402E
:101570000030014000000240000402400008024028
:10158000000C02400010024000140240001802400B
:10159000001C02400148806870470000A400002041
:1015A00070B5040011D021684CF6CC400860216869
:1015B00045F255500860D4E9000141602168A068F7
:1015C0008860FFF7E7FF05460DE0012070BD00BF12
:1015D000FFF7E0FF401B312805D92068C06880076D
:1015E00001D0032070BD2068C0688007F0D1216859
:1015F0004AF6AA200860002070BD00684AF6AA21B9
:1016000001600020704700000248816802781144A0
:1016100081607047A40000200B4810B5016841F4B8
:1016200000710160016841F480610160016841F46A
:1016300080710160032000F06FF80F2000F006F8C1
:1016400000F024F8002010BD003C024070B50D4DA4
:1016500004464FF47A712878B1FBF0F00A49096822
:10166000B1FBF0F000F010FB48B9102C07D20022BB
:101670002146501E00F030F800206C6070BD012043
:1016800070BD0000A4000020B00000200A4808B58A
:10169000016841F480410160006800F480400090DE
:1016A0000548001F016841F080510160006800F0AA
:1016B0008050009008BD000044380240002809DB3B
:1016C00000F01F02012191404009800000F1E0205C
:1016D000C0F8001170470000F0B40E4B1B680C46B8
:1016E000C3F30223C3F10705042D00D90425191DF6
:1016F000072901D2002300E0DB1E012606FA05F1CE
:10170000491E214099409E40761E16403143F0BC50
:1017100002F09BB90CED00E0064900F007020868F2
:101720004FF6FF03184040EA0220034A10430860C6
:10173000704700000CED00E00000FA052DE9F047CD
:101740000E46050065D0DFF81481D8F80000F7B226
:1017500000F00700B04207D288F80070D8F8000007
:1017600000F00700B04254D128683D4C810712D5E3
:10177000400703D5206840F4E05020602878000737
:1017800003D5206840F4604020602068A96820F0FC
:10179000F000084320602878C0072DD030496868E1
:1017A0000839012812D0022813D0032811D0096863
:1017B000890700292DDA216821F003010143216006
:1017C000FFF7E8FE814641F2883A0EE00968890396
:1017D000EFE709688901ECE7FFF7DCFEA0EB090100
:1017E000514502D90320BDE8F0872068696800F000
:1017F0000C00B0EB810FEFD1D8F80010404601F09B
:101800000701B14207D90770006800F00700B04235
:1018100001D00120E7E72878400705D52068E9686E
:1018200020F4E050084320602878000706D520689F
:10183000296920F4604040EAC100206000F03EF8D1
:101840002168084AC1F30311515CC8400649086089
:1018500006480068FFF7FAFE0020C4E7003C02409B
:10186000083802400A730008B0000020A8000020D9
:101870000148006870470000B00000200448054996
:1018800000680968044AC1F38221515CC84070476E
:10189000B0000020083802401A73000804480549C7
:1018A00000680968044AC1F34231515CC84070477E
:1018B000B0000020083802401A730008154810B51F
:1018C000006810F00C02144813D04110042A0FD005
:1018D000082A0ED10F4C241F2268236802F03F0211
:1018E0005B0207D52068C0F38810A0FB010106E069
:1018F000084610BD2168C1F38811A1FB0001002337
:10190000FEF7B2FC2168C1F30141491C4900B0FB5C
:10191000F1F010BD083802400024F4002DE9F84F22
:1019200004006ED02078DFF84C93C007A9F10405BD
:101930004AD009F104000168C1F38101012908D0EE
:101940000068C0F3810002280AD1D9F800004002E3
:1019500006D52868800337D560680028E1D033E0D9
:101960006068B0F5803F10D0B0F5A02F286810D087
:1019700020F480302860286820F480202860606887
:10198000A8B1FFF707FE06460DE0286840F4803056
:10199000F4E740F480202860F7E700BFFFF7FAFD86
:1019A000801B642873D828688003F7D50CE0FFF704
:1019B000F1FD064605E000BFFFF7ECFD801B642843
:1019C000F0D828688003F7D42078DFF8AC8280074D
:1019D0004FF0000A3ED5A748001D016811F00C0F1A
:1019E00008D00068C0F3810002280BD1D9F80000AC
:1019F000400207D42868800716D5E068012800D186
:101A000012E033E1E068B8B10120C8F80000FFF748
:101A1000C1FD064605E000BFFFF7BCFD801B0228A4
:101A2000C0D828688007F7D52868216920F0F80019
:101A300040EAC10028600DE0C8F800A0FFF7AAFD49
:101A4000064604E0FFF7A6FD801B02281FD8286881
:101A50008007F7D42078000722D5864F8748616930
:101A6000703771B101210160FFF794FD064604E073
:101A7000FFF790FD801B022809D838688007F7D54A
:101A80000EE0C0F800A0FFF785FD064605E082E005
:101A9000FFF780FD801B02287DD838688007F7D4C7
:101AA0002078400768D5DFF8CCB100270BF13C0B5C
:101AB000DBF80000C0000BD4DBF8001041F08051CF
:101AC000CBF80010DBF80000012700F080500090F8
:101AD0006B4E3068C00510D4306840F480703060C0
:101AE000FFF758FD009005E0FFF754FD0099401AFC
:101AF000022850D83068C005F6D55E4EA0686C3616
:101B000001280FD00528306810D020F00100306087
:101B1000306820F004003060A068B8B1FFF73AFDEB
:101B200000900FE0306840F00100F4E740F004005E
:101B30003060F7E7FFF72EFD0099411A41F2883037
:101B4000814266D830688007F4D50EE0FFF722FDA9
:101B5000009007E0FFF71EFD0099411A41F288301E
:101B6000814256D830688007F4D42FB1DBF80010DA
:101B700021F08051CBF80010A069C8B33D49091D80
:101B80000968C1F3810102294AD00228504607D0D2
:101B9000C8F8600000E03CE0FFF7FCFC04463BE0D6
:101BA0004746C8F86000FFF7F5FC064605E000BFB1
:101BB000FFF7F0FC801B02282BD828688001F7D49F
:101BC000D4E907010843A16A2E4A490802EB014102
:101BD000626A41EA8211084394F82C1040EA0161DC
:101BE000C9F8001001203866FFF7D4FC044606E06F
:101BF0003EE000BFFFF7CEFC001B022809D8286892
:101C00008001F7D534E000BFFFF7C4FC001B0228B9
:101C100002D90320BDE8F88F28688001F4D427E0BA
:101C20000128F7D0D9F80000E26900F48001914260
:101C30001CD1226A00F03F01914217D147F6C071D2
:101C4000626A0140B1EB821F10D1A26A4FF0FF33EC
:101C500000F4403103EB5202B1EB024F06D194F88D
:101C60002C1000F07060B0EB016F01D00120D1E7C3
:101C70000020CFE70438024000004742800E474270
:101C8000007000400000FFFF10B5401EB0F1807FE3
:101C900001D3012010BD4FF0E02460610F216017D7
:101CA00001F0D3FE0020A06107202061002010BDBC
:101CB0007047704710B5040003D094F83D0010B190
:101CC00007E0012010BD002084F83C00204600F011
:101CD0001FF8022084F83D00211D206801F04CFC13
:101CE000012084F8460084F83E0084F83F0084F820
:101CF000400084F8410084F8420084F8430084F8EE
:101D0000440084F8450084F83D00002010BD000028
:101D100008B500680B49884212D10B48016841F4AC
:101D2000003101600068002200F4003000900121C1
:101D30001920FFF7D1FCBDE808401920FFF7BEBC11
:101D400008BD0000004401404438024090F83D10B6
:101D5000012901D001207047022180F83D1001685F
:101D6000CA6842F00102CA6000681149884214D072
:101D7000B0F1804F11D00F4988420ED00E498842F1
:101D80000BD00E49884208D00D49884205D00D4934
:101D9000884202D00C49884204D1816801F00701D1
:101DA000062903D0016841F001010160002070475D
:101DB000000001400004004000080040000C00400A
:101DC000000401400040014000180040704770B519
:101DD0000446006801694FF00005C943890715D41E
:101DE000C168C943890711D4E91E01610120207728
:101DF000206880698007204602D0FFF7E7FF04E0F3
:101E000000F098F8204600F096F8257720680169E0
:101E1000C943490717D4C168C943490713D46FF0B0
:101E200004010161022020772068806910F4407F5E
:101E3000204602D0FFF7CAFF04E000F07BF82046FE
:101E400000F079F8257720680169C943090716D49D
:101E5000C168C943090712D46FF008010161042069
:101E600020772068C0698007204602D0FFF7AEFFC8
:101E700004E000F05FF8204600F05DF82577206868
:101E80000169C943C90617D4C168C943C90613D437
:101E90006FF010010161082020772068C06910F4FC
:101EA000407F204602D0FFF791FF04E000F042F8A7
:101EB000204600F040F8257720680169C943C9072A
:101EC00008D1C168C943C90704D1891E01612046F0
:101ED00000F032F820680169C943090609D4C168D5
:101EE000C943090605D46FF0800101612046FFF760
:101EF000DFFE20680169C943490609D4C168C943A6
:101F0000490605D46FF040010161204600F0EEFC67
:101F100020680169C94389060BD4C168C943890691
:101F200007D46FF0200101612046BDE87040FFF743
:101F3000C0BE70BD704770472DE9F04FFF492DEDD1
:101F40000E8B81B088427CD10925FD4CB4F9060086
:101F500090FBF5F004F0FBFD41EC190B84ED1A9BAE
:101F6000B4F9080090FBF5F004F0F1FDC4E91C01A0
:101F7000B4F9020090FBF5F004F0E9FDC4E90801B2
:101F800000209FEDF0ABF14FF14907F11002F14E47
:101F9000A2F1200A4FEA000901EB80052B69012B11
:101FA00052F8203002D0012B14D01DE0012B11D0AB
:101FB0005AF8208051F820C0C0EBC003E0444AF832
:101FC000208006EBC30347F820C083ED06AB012356
:101FD00042F8203057F82030322B05DAC5F810903F
:101FE00041F8209042F820909FEDDB8B9FEDDCCBF9
:101FF000401C0428D0DBA346B0EE490AF0EE690A83
:1020000002F006F853EC182B51EC100B04F004FF0F
:1020100016D35C469BED1C0B01F0FAFF53EC182B1A
:1020200051EC100B04F0F8FE0AD394ED080B01F00C
:10203000EFFF53EC182B51EC100B04F0EDFE7DD2AA
:1020400000E0FCE3B0EE4C8AF0EE6C8AB0EE480A99
:10205000F0EE680A01F00CFDB0EE40EAF0EE60EA46
:1020600002F00AFE9BED081B5C4653EC112B51EC71
:10207000100B04F0D3FD94ED1A1B53EC112B04F05C
:1020800001FF41EC190BB0EE4E0AF0EE6E0A01F0C2
:102090005BFF94ED081B51EC100B53EC112B04F07B
:1020A000BDFD94ED1C1B53EC112B04F0EBFE41EC39
:1020B000100BB0EE491AF0EE691A01F045FE9FEDE3
:1020C000AA9B51EC100B53EC192B04F0A7FD9FEDCC
:1020D000A8BB53EC1B2B04F077FBB0EE4E0AF0EEDE
:1020E0006E0AC6E9040102F0C7FD94ED081B51EC2D
:1020F000100B53EC112B04F091FD94ED1A1B53ECD3
:10210000112B04F0BFFE41EC1D0BB0EE4E0AF0EEB9
:102110006E0A01F019FF94ED081B51EC100B53EC03
:10212000112B04F07BFD94ED1C1B53EC112B04F0E0
:102130008FFA41EC100BB0EE4D1A00E035E1F0EEF5
:102140006D1A01F001FE53EC192B51EC100B04F049
:1021500065FD53EC1B2B04F037FBB0EE4E0AF0EE9E
:102160006E0AC6E9120102F087FD94ED081B51ECDE
:10217000100B53EC112B04F051FD94ED1A1B53EC92
:10218000112B04F065FA41EC1D0BB0EE4E0AF0EE97
:102190006E0A01F0D9FE94ED081B51EC100B53ECC4
:1021A000112B04F03BFD94ED1C1B53EC112B04F0A0
:1021B0004FFA41EC100BB0EE4D1AF0EE6D1A01F033
:1021C000C3FD53EC192B51EC100B04F027FD53EC1D
:1021D0001B2B04F0F9FAB0EE4E0AF0EE6E0AC6E9D7
:1021E000200102F049FD94ED081B51EC100B53EC5B
:1021F000112B04F013FD94ED1A1B53EC112B04F07A
:1022000027FA41EC1D0BB0EE4E0AF0EE6E0A01F01B
:102210009BFE94ED081B51EC100B53EC112B04F0BA
:10222000FDFC94ED1C1B53EC112B04F02BFE41EC38
:10223000100BB0EE4D1AF0EE6D1A01F085FD53EC67
:10224000192B51EC100B04F0E9FC53EC1B2B04F0A0
:10225000BBFAB0EE4E0AF0EE6E0AC6E92E0102F0AD
:102260000BFD94ED081B51EC100B53EC112B04F0FB
:10227000D5FC94ED1A1B53EC112B04F003FE41EC3A
:102280001D0BB0EE4E0AF0EE6E0A01F05DFE94ED0D
:10229000081B51EC100B53EC112B04F0BFFC94ED18
:1022A0001C1B53EC112B04F0EDFD41EC100BB0EEB8
:1022B0004D1AF0EE6D1A01F047FD53EC192B51EC5D
:1022C000100B04F0ABFC53EC1B2B04F07DFA9FEDDC
:1022D0002A9B0025C4E91E01C5EBC50006EBC0071B
:1022E00053EC192B97ED040B51EC100B04F0A2FEEC
:1022F00041EC100B01F08CFE53EC182B51EC100B41
:1023000004F050FC02D397ED040B03E09FED1C0B8F
:1023100087ED040BB0EE491AF0EE691A53EC112B5D
:1023200051EC100B04F094F941EC100B01F070FE2D
:10233000B0EE481AF0EE681A26E00000E002002035
:102340001800002000000000000000001002002023
:1023500064020020700400200000000000408F4054
:10236000000000000000F03F000000000080664018
:1023700000000060FB210940000000000080564082
:102380000000000000C0564053EC112B51EC100B24
:1023900004F008FC03D29FEDFE0B87ED040B6D1CCF
:1023A000042D99DB0120A06101E0C4F81890DFF84A
:1023B000E8A30025B046284603F04EF9C5EBC50753
:1023C00008EBC70494ED060B51EC100B04F090FBE6
:1023D0004FF4B47690FBF6F106FB11005A3804F086
:1023E000B6FB41EC100B01F013FEB0EE4C8AF0EEA0
:1023F0006C8A53EC182B51EC100B04F0D3FB12D267
:1024000094ED060B51EC100B04F072FB90FBF6F010
:10241000C0EB001000EB40005B2101EBC00004F0BA
:1024200096FBC4E9060194ED060B51EC100B04F089
:102430005FFB90FBF6F106FB11005A3004F087FBBE
:1024400041EC100B01F0E4FD53EC182B51EC100B98
:1024500004F0A8FB13D294ED060B51EC100B04F022
:1024600047FB90FBF6F0C0EB001000EB40006FF074
:10247000580101EBC00004F06AFBC4E9060194EDC9
:10248000060B51EC100B04F033FB90FBF6F106FB4E
:102490001100A0F5877004F05AFB41EC100B01F01D
:1024A000B7FD53EC182B51EC100B04F07BFB13D24F
:1024B00094ED060B51EC100B04F01AFB90FBF6F0B8
:1024C000C0EB001000EB400040F20F1101EBC00028
:1024D00004F03DFBC4E9060194ED060B51EC100B32
:1024E00004F006FB90FBF6F106FB110000F5877087
:1024F00004F02DFB41EC100B01F08AFD53EC182B7E
:1025000051EC100B04F04EFB13D294ED060B51EC82
:10251000100B04F0EDFA90FBF6F0C0EB001000EBAE
:1025200040006FF4867101EBC00004F010FBC4E9B9
:1025300006019948103050F8250004F008FB94ED8E
:10254000061B464653EC112B04F082F8924A4032A7
:1025500002EBC502C2E9000156F837104AF825100F
:1025600094ED040B6D1C84ED020B042DFFF623AFDC
:10257000DBF8180000900AF104005C4690E80E00B9
:10258000DAF800009BED082B9BED1C1B9BED1A0B52
:1025900003F0A4F96169491C6161D4E903200AB917
:1025A000401C2061B0F5967F10DD84ED1AAB84ED00
:1025B0001CAB84ED08ABA4F80690A4F80890A4F82E
:1025C0000290A4F8049040F22D102061012A01D15C
:1025D000C4F81090322903D1C4F80C90C4F81490B8
:1025E0006E48FFF70AF86E4E3068B0F9020004F04A
:1025F000AEFA6C4DC5E90E0170685835B0F90200AD
:1026000004F0A5FA45E90401B068B0F9020004F04D
:102610009EFAC5E90001F068B0F9020004F097FAEB
:10262000614EC5E9040196ED068B84ED0A8B96EDAB
:1026300008AB84ED0CAB96ED0A9B84ED0E9B96EDFA
:102640000C0B84ED100B51EC100B04F051FA0FFA47
:1026500080F951EC190B04F04BFA0FFA80F851ECA9
:102660001A0B04F045FA07B251EC180B04F040FACB
:1026700000B24B4642463946FDF76CFF9FED4B8B4F
:10268000DFF8309105ED128BD9F80070B7F9020030
:1026900004F05DFA45E91601388804F06FFA45E95F
:1026A0001001B7F9080004F052FADFF8EC8045E9B0
:1026B0000E0108F1400898ED000B9FED3F9B51EC97
:1026C000100B53EC192B04F0A9FA9FED3DAB53EC22
:1026D0001A2B04F0A3FA9FED3CBB53EC1B2B04F028
:1026E0009DFA9FED3BCB53EC1C2B04F06DF845E9B4
:1026F0001401F86804F02BFA45E90C0196ED020B81
:1027000084ED120B85ED0A8BD9F80470B7F902003D
:1027100004F01DFAC5E90601388804F02FFAC5E96E
:102720000C01B7F9080004F012FAC5E90E0198EDA2
:10273000020B53EC192B51EC100B04F06FFA53EC15
:102740001A2B04F06BFA53EC1B2B04F067FA53ECD2
:102750001C2B04F039F8C5E90801F86804F0F7F912
:10276000C5E9100196ED100B84ED140B85ED168B69
:10277000D9F80870B7F9020004F0E9F9C5E91201C7
:10278000388804F0FBF9C5E91801B7F9080023E01F
:1027900000000000004056C0F0010020D4020020DC
:1027A000A0010020900600209007002000000000FB
:1027B00000000040B0010020000000000000424086
:1027C0000000000000FFBF40000000000080474004
:1027D0000000000000E8B74004F0B9F9C5E91A01AB
:1027E00098ED040B53EC192B51EC100B04F016FA76
:1027F00053EC1A2B04F012FA53EC1B2B04F00EFAD4
:1028000053EC1C2B03F0E0FFC5E91401F86804F059
:102810009EF9C5E91C0196ED160B84ED160B85EDAE
:10282000228BD9F80C70B7F9020004F090F9C5E9D1
:102830001E01388804F0A2F9C5E9240100E050E047
:10284000B7F9080004F083F9C5E9260198ED060BF5
:1028500053EC192B51EC100B04F0E0F953EC1A2B4C
:1028600004F0DCF953EC1B2B04F0D8F953EC1C2BCF
:1028700003F0AAFFC5E92001F86804F068F9C5E98A
:10288000280196ED1C0B84ED180B03F081FC94EDF0
:10289000180B51EC100B04F02BF994ED160B05B24C
:1028A00051EC100B04F024F994ED140B07B251EC29
:1028B000100B04F01DF994ED120B06B251EC100B45
:1028C00004F016F900B22B463A463146FDF772FE87
:1028D00003F00AFC01B0BDEC0E8BBDE8F04F03F035
:1028E00019BC01B0BDEC0E8BBDE8F08F704770478E
:1028F00010B500680549884207D1012204490548FE
:1029000000F00EFA04490020087010BD0048004095
:10291000500200206C03002018000020F8B5016868
:1029200004460868CA684B6910F00F0F4FF00005A5
:1029300059D003F0010602F49077374365D0C10700
:1029400005D0D10503D5216C41F001012164410777
:1029500005D5D90703D0216C41F00201216481071C
:1029600005D5D90703D0216C41F00401216401078A
:1029700007D502F02001314303D0216C41F008015A
:102980002164216C00293AD0800604D5900602D536
:10299000204600F005FF20684069216CC0F38010DC
:1029A000090700D460B3204600F0C5FE20684069E6
:1029B000400621D52068143050E8001F21F0400166
:1029C00040E80012002AF5D1A06BA8B16C4901655E
:1029D000A06BFEF719FB002811D0A06B016D01B0B0
:1029E000BDE8F040084783060FD593060DD5204675
:1029F000BDE8F84000F0D4BE2046FFF779FFF8BDEF
:102A00002046FFF775FF2564F8BD266B2023012EB5
:102A100079D1C60677D5D60675D50868486800907E
:102A20004869400640D5A16B086840680004000C66
:102A3000EAD0A28D8242E7D9E085C869B0F5807FEF
:102A40002DD020680C3050E8001F21F4807140E840
:102A50000012002AF5D12068143050E8001F21F040
:102A6000010140E80012002AF5D12068143050E836
:102A7000001F21F0400140E80012002AF5D184F83F
:102A80003E30256320680C3050E8001F21F0100113
:102A900040E80012002AF5D1A06BFEF76CFAA08D79
:102AA000E18D401A81B229E0A08DE18D401A81B2FA
:102AB000E08D0028A8D00029A6D020680C3050E86E
:102AC000002F22F4907240E80026002EF5D12068F5
:102AD000143050E8002F22F0010240E80026002EBA
:102AE000F5D184F83E30256320680C3050E8002F83
:102AF00022F0100240E80023002BF5D12046FFF71A
:102B0000F6FEF8BDFFE705062BD5150629D594F886
:102B10003D002128F5D1A068B0F5805F01D1206982
:102B2000B0B1206A411C2162216800784860E08CC5
:102B3000401E0004000CE084E3D12068C16821F04D
:102B40008001C1602068C16841F04001C160D8E7E0
:102B5000206A0088C0F308004860206A801C206258
:102B6000E5E74006CDD55006CBD5CA68204622F011
:102B70004002CA6084F83D3000F01DF9C1E7000052
:102B80004136000870B5040004D094F83D000025DB
:102B900010B106E0012070BD84F83C50204600F0E2
:102BA00023F8242084F83D002068C16821F40051F6
:102BB000C160204600F054FE2068016921F4904174
:102BC00001612068416921F02A0141612068C168E2
:102BD00041F40051C1602564202084F83D0084F850
:102BE0003E00002070BD00002DE9F04186B0064691
:102BF00014216846FDF7AFFB4349DFF808C1376889
:102C000041481039022203230725002467451FD1BC
:102C1000066846F400360660006800F4003005904F
:102C2000086840F0080008600868694600F008007D
:102C3000059060208DE81500CDE903353348FEF797
:102C4000B1FB002202212620FEF746FD262053E09C
:102C5000DFF8BCC0674551D1076847F4802707609B
:102C6000006800F480200590086840F002000860C9
:102C70000868694600F0020005904FF440608DE856
:102C80001500CDE903352348FEF78CFB234D224880
:102C90004FF000672860C5E901744FF48068C5E90A
:102CA00003486C61AC61EC612C6228466C62FEF7F3
:102CB0008DFA08B1FDF71EFDB563AE63174D1648DA
:102CC00060353030E5E802074020A5E811011348DF
:102CD00045F814496030AC61EC612C626C62FEF71F
:102CE00075FA08B1FDF706FD75630022114627202D
:102CF000AE63FEF7F1FC2720FEF7E0FC06B0BDE86E
:102D0000F08100000044004040380240000C0240C6
:102D1000004800400004024028600240B003002048
:102D200090F83E30202B0ED159B152B190F83C3082
:102D3000012B08D0012380F83C300023036300F00E
:102D400015BE0120704702207047000070B5006872
:102D500014490126144D88421AD1144C2078AA280F
:102D60000FD1287850B9FDF775FB1022611C10486F
:102D7000FFF7D6FF2E702078AA2802D128780128E4
:102D800008D0012209490A48FFF7CAFF002028702D
:102D9000EE6070BDFDF75EFB112204490448FFF7A9
:102DA000BFFFF5E700480040180000205002002057
:102DB0006C03002070477047FEE7000070B50C46BA
:102DC0002DED0A8B054653EC112B51EC100B374EB1
:102DD0009FED37BB9FED38CB04F054F841EC190B55
:102DE00096ED060B53EC192B51EC100B03F016FF6C
:102DF00094ED001B53EC112B04F01CF99FED301BDC
:102E000053EC112B03F00AFF96ED1A0B41EC1A0B51
:102E100053EC192B51EC100B03F000FF94ED021B47
:102E200053EC112B03F014FC53EC1A2B03F010FCA1
:102E300041EC180B53EC1B2B03F0EEFF02D285ED97
:102E400000BB0BE053EC1C2B51EC180B03F0AAFE5B
:102E500002D285ED00CB01E085ED008B9FED1A8B52
:102E600051EC1A0B53EC182B03F0D8FE94ED001B19
:102E700053EC112B03F0ECFBC4E9000196ED100BB1
:102E800053EC192B51EC100B03F0C8FE53EC182B2C
:102E900003F0C4FE94ED021B53EC112B03F0D8FB9E
:102EA000C4E90201BDEC0A8B70BD000010080020CF
:102EB000000000000000D040000000000000D0C072
:102EC0000000000000005940FCA9F1D24D62503FC3
:102ED0002DE9F74314462DED0A0B894606462DEDE4
:102EE000108BB0EE44DAF0EE64DAB0EE42BAF0EEF7
:102EF00062BAB0EE418AF0EE618AB0EE40FAF0EECE
:102F000060FA9FEDBDAB9FEDBEEBBF4D9FEDBF0BDC
:102F100051EC1D0B53EC102B03F080FE53EC1B2BDC
:102F200003F096FB53EC182B03F0ACFF41EC190BAC
:102F3000B0EE490AF0EE690A01F06AF8B0EE408A94
:102F4000F0EE608A53EC1A2B51EC180B03F02AFEBA
:102F500001D89FEDB09B95ED000B53EC192B51EC74
:102F6000100B03F05BFE94ED041B53EC112B04F0EB
:102F700061F853EC1E2B03F051FE41EC1C0B53EC9B
:102F80001A2B51EC180B03F047FF3AD295ED040BC6
:102F900053EC192B51EC100B03F040FE94ED021B87
:102FA00053EC112B03F054FB53EC1C2B03F050FBA0
:102FB00041EC180B9FED99AB53EC1A2B03F02CFF4F
:102FC00008D39FED98AB51EC180B53EC1A2B03F080
:102FD000E9FD03D2B0EE4A8AF0EE6A8A9FED930BC8
:102FE00051EC180B53EC102B03F018FEB0EE4F1AF7
:102FF000F0EE6F1A53EC112B04F01CF841EC1A0B95
:1030000001E09FED84AB95ED060B53EC1A2B51ECD0
:10301000100B03F003FE94ED061B53EC112B04F090
:1030200009F853EC1E2B03F0F9FD95ED1A0B41EC5A
:103030001E0B53EC1A2B51EC100B03F0EFFD94ED2B
:10304000081B53EC112B03F003FB53EC1E2B03F076
:10305000FFFA41EC180B9FED71FB53EC1F2B03F0B3
:10306000DBFE08D39FED6FFB51EC180B53EC1F2BCD
:1030700003F098FD02D286ED00FB01E086ED008BA7
:103080009DED160B51EC1B0B53EC102B03F0D2FFF4
:1030900041EC180B94F82A000227012698B194F805
:1030A0002B004FF003089FED63BB9FED64FB0128ED
:1030B0000CD0022853EC1F2B51EC180B1ED003F040
:1030C000ABFE0AD88FE084F82A6014E053EC1B2B87
:1030D00051EC180B03F066FD1AD953EC1F2B51EC81
:1030E000180B03F05FFD19D253EC1B2B51EC180B9E
:1030F00003F092FE12D284F82B700FE003F08CFEE6
:1031000071D953EC1B2B51EC180B03F04BFD66D817
:1031100084F82B809FED4B0B84ED000B94ED000B9E
:1031200053EC1D2B51EC100B03F092FAC9E900018E
:1031300094F82800E8B394F82900012802D000BFD1
:1031400084F8296095ED020B53EC192B51EC100B10
:1031500003F064FD9FED3D8B53EC182B03F05EFDF7
:1031600094ED021B53EC112B03F072FAC4E9020137
:1031700053EC182B51EC1C0B03F050FD94ED041B89
:1031800053EC112B03F064FAC4E9040153EC182B3F
:1031900051EC1E0B03F042FD94ED061B53EC112B7A
:1031A00003F056FAC4E9060195ED100B53EC1A2B07
:1031B00000E01DE051EC100B03F030FD53EC182B38
:1031C00003F02CFD94ED081B53EC112B03F040FA97
:1031D000C4E90801BDEC108B0DB0BDE8F0839FED94
:1031E0000D0B99E7FFE784F82B609FED1A0B93E72F
:1031F00084F82860A4E700000000000000407F4041
:1032000000000000000059401008002000000000ED
:1032100000FFBF40000000000000000000000000B0
:103220000000D040000000000000D0C000000000FE
:103230000000E03F000000000088B3C00000000074
:103240000088B340000000000000F0BFFCA9F1D2EC
:103250004D62503F000000000000F03F0F4810B5E5
:103260000D4901600321416000214FF4002281607B
:10327000C0E903124FF44012426101764176817633
:10328000C17601774177FDF7B0FC002803D0BDE897
:103290001040FDF72FBA10BD0064004084020020EA
:1032A0000F4810B50D4901600321416000214FF422
:1032B00000228160C0E903124FF44012426101769E
:1032C00041768176C17601774177FDF78EFC002843
:1032D00003D0BDE81040FDF70DBA10BD00680040F6
:1032E000AC0200200D4808B5016841F400110160EE
:1032F0000068002200F40010009011460C20FEF738
:10330000EBF90C20FEF7DAF9002211460E20FEF749
:10331000E3F9BDE808400E20FEF7D0B9303802408E
:1033200030B587B014216846FDF715F82A480168C2
:1033300041F080010160016801F0800105910168A0
:1033400041F002010160016801F00201059101688C
:1033500041F040010160016801F040010591016800
:1033600041F001010160016801F00101059101686E
:1033700041F00801016000684FF4041400F00800F7
:1033800005904FF4A87001258DE831006946134877
:10339000FEF708F828038DE8310069461048FEF76B
:1033A00001F8002204210A20FEF796F90A20FEF710
:1033B00085F9002204211720FEF78EF91720FEF769
:1033C0007DF9002204212820FEF786F92820FEF747
:1033D00075F907B030BD00003038024000180240D7
:1033E00000000240094810B507490160042141600E
:1033F00040F271218160FEF7D3F8002803D0BDE8C8
:103400001040FDF777B910BD00300040D402002015
:103410000C4810B50A490160A7214160002140F223
:10342000E732C0E90212016180218161FEF742FCAE
:10343000002803D0BDE81040FDF75CB910BD0000C6
:1034400000440140E00200200C4810B50A49016028
:103450004FF4E1314160002181600C22C160C0E97C
:1034600004128161C161FFF78DFB002803D0BDE824
:103470001040FDF73FB910BD004400402803002074
:103480000C4810B50A4901604FF4E1314160002158
:1034900081600C22C160C0E904128161C161FFF743
:1034A00071FB002803D0BDE81040FDF723B910BD23
:1034B000004800406C030020FEE7FEE770477047BD
:1034C000FEF7A2B830B593B030216846FCF743FF51
:1034D00014210CA8FCF73FFF1E480025016841F0AD
:1034E00080510160006800F0805011901A48016816
:1034F00041F4804101600068022400F48040119092
:10350000092000904FF4803001900120CDE905049E
:103510008005079008AA0420A82182E813000B90D8
:103520006846FEF7FBF908B172B6FEE70CA90F205A
:1035300081E831004FF4A0500F904FF4805010906C
:1035400005210CA8FEF7FAF8002801D072B6FEE7B4
:1035500013B030BD4038024000700040024801689E
:1035600041F470010160704788ED00E00148FEF70A
:103570002EBC0000E0020020F0B50268254C264D6C
:10358000264E274F274B4FF0804CA04209D0604574
:1035900007D0A84205D0B04203D0B84201D098422B
:1035A00004D122F0700E4A6842EA0E02A0421BD0FB
:1035B000604519D0A84217D0B04215D0B84213D0F8
:1035C000984211D0184DA8420ED0184DA8420BD0E9
:1035D000174DA84208D0174DA84205D0164DA84255
:1035E00002D0164DA84203D122F44075CA682A437E
:1035F0004D6922F080022A4302608A68C2620A682A
:103600008262A04201D0984201D10969016301217F
:103610004161F0BD0000014000040040000800408E
:10362000000C004000040140004001400044014003
:103630000048014000180040001C004000200040ED
:1036400010B5806B0021C185C184FFF751F910BD11
:1036500070B5846B2068406994F83D10C0F3C010C9
:103660000025212904D118B1E584204600F08AF80C
:103670002068406994F83E10C0F38010222904D1DC
:1036800018B1E585204600F056F8206C40F0100097
:1036900020642046FFF72CF970BD10B50146806B01
:1036A00009680968C9052FD40021C18501680C315A
:1036B00051E8002F22F4807241E80023002BF5D15D
:1036C0000168143151E8002F22F0010241E8002383
:1036D000002BF5D10168143151E8002F22F040028F
:1036E00041E80023002BF5D1202180F83E10016B2A
:1036F000012909D101680C3151E8002F22F0100294
:1037000041E80023002BF5D1016B012902D0FFF71E
:103710001DFB10BD818DFFF7EAF810BD10B5806B61
:10372000016B012902D0FFF745FB10BD818D4908CF
:10373000FFF7DDF810BD01680C3151E8002F22F4CD
:10374000907241E80023002BF5D10168143151E853
:10375000002F22F0010241E80023002BF5D1016B7C
:10376000012909D101680C3151E8002F22F0100223
:1037700041E80023002BF5D1202180F83E100021E4
:103780000163704701680C3151E8002F22F0C0023C
:1037900041E80023002BF5D1202180F83D1070472F
:1037A00008B590F83E10222901D0022008BD826899
:1037B0004FF480539A4201D1016921B1816A9A4242
:1037C0001BD04AB10AE00268816A5268C2F308025B
:1037D0000A80816A891C08E0026972B10268526835
:1037E00002F07F020A70816A491C8162C18D491E04
:1037F0000904090CC18503D019E002685268F1E799
:103800000168CA6822F02002CA600168CA6822F40E
:103810008072CA6001684A6922F001024A6120216F
:1038200080F83E10016B012903D0FFF78FFA0020CA
:1038300008BD0021016301680C3151E8002F22F01E
:10384000100241E80023002BF5D101680A68D20676
:1038500002D50A6849680091818DFFF748F8E6E7CC
:1038600070B5044600680169E26821F440511143D3
:1038700001612169A068E269084361691143084355
:103880002168CA6849F20C639A430243CA602068FF
:103890004169A26921F440711143416131492068B5
:1038A000884202D03049884202D1FDF7F7FF01E09B
:1038B000FDF7E4FFE2690023192164253226B2F501
:1038C000004F626828D0A0FB0101930F9200FCF723
:1038D000CBFC0146B0FBF5F06FF01802504301EB52
:1038E000800006EB0010B0FBF5F000F0F002B1FB39
:1038F000F5F002EB0012B1FBF5F06FF0180358433E
:1039000001EB800006EB0010B0FBF5F000F00F00BB
:1039100021681044886070BDA0FB010192185B41D2
:10392000FCF7A2FC0146B0FBF5F00201B1FBF5F09B
:103930006FF01803584301EB800006EBC000B0FBAA
:10394000F5F000F0F80002EB4002B1FBF5F058434F
:1039500001EB800006EBC000B0FBF5F000F00700C3
:10396000D6E70000001001400014014038B5816224
:1039700082850025134604460564222084F83E0013
:10398000A26B1C48D063A26B1B481064A26B1B483F
:10399000D064A06B0A4605652168A06B091DFDF780
:1039A0007FFC206801684068009084F83C502069E2
:1039B00048B120680C3050E8001F41F4807140E8A5
:1039C0000012002AF5D12068143050E8001F41F0A1
:1039D000010140E80012002AF5D12068143050E8B7
:1039E000001F41F0400140E80012002AF5D10020FC
:1039F00038BD00009B3600081D370008513600080E
:103A00000148FEF78BBF0000280300200148FEF7A5
:103A100085BF00006C030020FEE703B4019841005D
:103A2000009850EAC12018BF04204A0D18BF40F08A
:103A3000010040F2FF72B2EB515F08BF40F002009C
:103A4000012808BF052002B070470907090E0028A9
:103A500004DB00F1E02080F80014704700F00F0054
:103A600000F1E02080F8141D704700000000000005
:103A700070B59B482DED020B2DED068B079D25F0B3
:103A80000044A04218DC9748844202DC0AD1069820
:103A900040B19DED060BBDEC068B02B0BDE8704059
:103AA00001F08EBD002DCCBF9FED8F0B9FED900BD5
:103AB000BDEC068B02B070BD8F48A04215DD8F486B
:103AC000A042D8BF4FF0FF3458DD9DED060B51ECFE
:103AD000100BFFF7A2FF042808BF01F0A5FD9DED24
:103AE000060BBDEC068B02B070BD9DED060B51ECD4
:103AF000100B02F037FACDE9060181489FED828B69
:103B0000A0423CDD8248A0421FDD00249FED82AB35
:103B10009DED060B53EC1A2B51EC100B02F098FDA7
:103B20009DED060B41EC190B53EC1A2B51EC100BCD
:103B300003F074F853EC182B03F07CFA53EC192BB8
:103B400002F042FECDE9060149E09DED060B01249D
:103B500053EC182B51EC100B02F07AFD9DED060B87
:103B600041EC190B53EC182B51EC100B03F062FADB
:103B700053EC192B02F028FECDE906012FE068482E
:103B8000A0421FDD02249FED689B9DED060B53ECC8
:103B9000192B51EC100B03F041F853EC182B02F0E9
:103BA00057FD9DED060B41EC180B53EC192B51EC16
:103BB000100B03F03FFA53EC182B02F005FECDE991
:103BC00006010CE09DED060B032453EC102B9FED3A
:103BD000580B51EC100B02F0F7FDCDE906019DEDFD
:103BE000060B53EC102B51EC100B03F017F841ECC3
:103BF000180B53EC182B03F011F841EC190B4E483D
:103C00000621B0EE490AF0EE690A784401F0ACFBF7
:103C100053EC182B51EC100B03F000F841EC180B8F
:103C20004648B0EE490AF0EE690A0521784401F0F1
:103C30009BFB53EC192B51EC100B02F0EFFF41EC06
:103C4000100B51EC180B53EC102B002C0EDA02F079
:103C5000FFFC9DED061B53EC112B02F0DFFF9DEDE9
:103C6000061B53EC112B03F00DF935E002F0F0FCCC
:103C70009DED061B53EC112B02F0D0FF41EC100B15
:103C80002F48784400EBC40090ED001B51EC100B62
:103C900053EC112B03F0CEF99DED061B53EC112BC9
:103CA00003F0C8F941EC100B2648784400EBC4003F
:103CB00090ED001B51EC100B53EC112B03F0E2F8CC
:103CC00041EC100B002DA2BFBDEC068B02B070BD05
:103CD00051EC100B02F0AFFC41EC100B01E70000BF
:103CE000000010440000F07F182D4454FB21F93FE0
:103CF000182D4454FB21F9BF0000DC3F0000203E9A
:103D00000000F33F00000000000000000000F03F52
:103D10000000E63F0000000000000000000000403E
:103D20000080034000000000000000000000F83F99
:103D3000000000000000F0BF8237000038370000AC
:103D4000C23600007A36000070B56F4E2DED040BC0
:103D50002DED048B82B0DDF824C0DDE907235C4241
:103D60002CF000411C4341EAD474069D22F000402F
:103D7000B44205D86C422C4340EAD474B4420BD907
:103D80009DED081B9DED060B02B0BDEC048B04B04D
:103D9000BDE8704001F01EBCACF14054A4F17F645A
:103DA0001C430BD0022404EAAC7444EAD2740543E9
:103DB0009FED578B9FED582B07D015E09DED060B1F
:103DC00051EC100B01F040FC42E0002C11BF012C23
:103DD0009DED060B02B0BDEC048B04BF04B070BDBA
:103DE000022C38D0032C3BD00B439FED4D1B9FED95
:103DF0004E0B0AD0B14218D1B04209D121F0804116
:103E000020F08040099107900FE0002A15DA10E0B9
:103E1000474B7B44002C08BF93ED000B0DD0012CC9
:103E200010D0022C17D0032C1AD0B0421DD1002A7A
:103E300003DAB0EE410AF0EE610A02B0BDEC048B89
:103E400004B070BD93ED000B51EC100B02F0F3FBCE
:103E500041EC100BF1E7B0EE480AF0EE680AECE72F
:103E6000B0EE420AF0EE620AE7E7401A00159FED55
:103E7000329B3C28C8BF8DED000B17DCBCF1000F56
:103E8000BCBF10F13C0F8DED009B0FDB9DED080BCF
:103E900053EC102B9DED060B51EC100B02F094FC33
:103EA00002F060F801F0D0FBCDE90001B4B1012CC3
:103EB00010D0022C9FED220B53EC102B9DED000B2C
:103EC00051EC100B19D003F0B5F853EC182B03F09C
:103ED000B1F8BDE7019880F0004001909DED000B26
:103EE00053EC192B51EC100B02F0C6FD04BF02205D
:103EF000FCF760FA9DED000B9FE703F09BF853EC95
:103F0000182B02F0BFFFA3E70000F07F00000000C5
:103F1000182D4454FB210940182D4454FB2109C09D
:103F2000182D4454FB21F9BF182D4454FB21F93FAF
:103F300062360000000000000000000000000000E9
:103F4000075C143326A6A13C10B52F499FED2C1B0E
:103F50002DED020B84B0059820F000408842D8BFB8
:103F60009DED040B2DDD2949884209D1049840B903
:103F70004FF00100FCF71EFA01F036FB06B010BD51
:103F800005DB9DED040B01F01BFB06B010BD684680
:103F90009DED040B00F014FF10F0030004BF9DED35
:103FA000021B9DED000B0CD001280ED09DED021BD5
:103FB0009DED000B022817D0012001F051FA06B048
:103FC00010BD01F019F906B010BD9DED021B9DED6D
:103FD000000B012001F044FA51EC100B02F02BFB16
:103FE00006B041EC100B10BD01F006F951EC100BBE
:103FF00002F021FB06B041EC100B10BD00000000E8
:104000000000000000000000FB21E93F0000F07FFD
:104010002DED020B019820F0004001909DED000B6A
:1040200002B07047000000002DE9F04D2DED040BAB
:104030002DED0E8B96B0DDE92550279CDDF890A084
:1040400025F0004624F00048BAF1000F14BF01210A
:10405000002101EB4502FC4953184A1093422AD330
:10406000002814BF0123002303EB44030B44F7494A
:104070008B4220D358EA00019FEDF59B76D0DFF804
:10408000D8B35D4503D1BAF1000F05D188E0BAF18C
:10409000000F08BF002100D0012101EB450111F5FF
:1040A000001F08D8002814BF0121002101EB4401A2
:1040B00011F5001F0BD99DED261B9DED240B16B0AD
:1040C000BDEC0E8B04B0BDE8F04D01F083BA0027C3
:1040D000002DBCBFE149884521DAE1498845A8BFE8
:1040E00002271CDAC3451ADCDE4901EB28511429EA
:1040F00008DDC1F1340220FA02F101FA02F2824233
:104100000DD108E058B9C1F1140228FA02F101FA00
:1041100002F2424503D101F00101C1F1020756EA62
:104120000A0124D1002C22DA002D18BF022F01D061
:10413000012F0AD00220FCF73DF916B0BDEC0E8B22
:1041400004B0BDE8F04D01F023BA0220FCF732F9CB
:1041500001F01EFA51EC100B02F06DFA41EC100B5D
:1041600016B0BDEC0E8B04B0BDE8F08D18E09FEDED
:10417000BEAB9FEDBF8B002871D1B848804522D1DE
:1041800005F1804010F5801008BFBAF1000F07D08C
:10419000B3450ADC002CA8BF9DED260BE0DA0DE04C
:1041A000B0EE490AF0EE690ADAE7002C06DA9DED76
:1041B000260B51EC100B02F03EFA6FE0AE4878444B
:1041C00090ED000BCCE7D8454DD1002C48DA2EB14C
:1041D00086423AD1BAF1000F42D126E0BAF1000F7F
:1041E00013D00220FCF7E6F801F00EFA8DED020B79
:1041F0009DED240B8DED000B10EE900A039961F3F9
:104200001E0003909DED020BAAE78DED02AB9DED24
:10421000240B1AEE901A10EE900A8DED000B61F34C
:104220001E0003909DED020B9AE78DED028B9DED34
:10423000240B18EE901A10EE900A8DED000B61F32E
:104240001E0003909DED020B8AE709DA9DED240B19
:1042500051EC190B53EC102B02F0B6FA1EE020E0E3
:104260009DED240B7CE786421BDAB4F1804F0DD024
:10427000A4F10050B0F1FF5013D1002D11DB9DEDE2
:10428000240B51EC100B02F09FF907E09DED240B7D
:1042900053EC102B51EC100B00F0C2BC41EC100B96
:1042A0005EE79DED240B51EC100B01F05BFEBAF1C3
:1042B000000FCDE90E0142D19FED710B46B3A6F17F
:1042C000E040B0F17F600CD05E4538D1002D00DABF
:1042D000A7B3022F0CBF01204FF0FF3002F037FCD4
:1042E000DCE7002D01DD002C0DDA002D01DD002CB6
:1042F0001FDB002D16DA002C14DB012F08BF9FED09
:10430000620B3FF42DAFB0EE4A0AF0EE6A0A27E7DF
:10431000022F18BF002D0CD0012F0AD1002DFFF65F
:104320001FAF06E0002DB8BF002C08DA012F3FF4C4
:1043300017AFB0EE480AF0EE680A11E71BE0012063
:1043400000EBE57050EA070115D0791EB0EE498AFE
:10435000F0EE698A084308BF9FED4D8B4E4800255B
:10436000804570DD4D494E48884514DDB0420DDB77
:10437000002C19DB2FE00120FCF71CF816B0BDEC77
:104380000E8B04B0BDE8F04D01F02EB9B34502DC50
:10439000002C09DC1FE0864202DA002C1BDA03E065
:1043A0005E452BDD002C16DD0220FCF703F801F042
:1043B0002BF98DED020B53EC1A2B51EC180B02F07C
:1043C0002DFCCDE900010399019861F31E000390D3
:1043D0009DED020BC4E60220FBF7ECFF01F024F98F
:1043E00010EE901A18EE900A8DED020B8DED008BF9
:1043F00061F31E0003909DED020BB1E69DED0E0BE7
:1044000053EC192B51EC100B02F014FE9FED260B10
:10441000CDE9080153EC102B9DED080B51EC100B6E
:1044200002F0FCFB9FED221B53EC112B02F02AFD46
:104430009DED081B53EC112B02F0F0FB9FED1E1BB2
:1044400053EC112B3CE08CE0FFFF1F00FFFF0F003F
:10445000000000000000F03F0000F03F0000F07F8F
:104460000000404301FCFFFF000000000000F07F5F
:104470000000000000000000B63200000000000054
:104480000000000000000080000000000000F0FFBD
:10449000000000000000F0BF0000E0410000F04319
:1044A000FFFFEF3F00000000000000000000D03FD1
:1044B000555555555555D53F000000000000E03FCB
:1044C00002F0E0FC9DED080B41EC1A0B53EC102BB5
:1044D00051EC100B02F0A2FB53EC1A2B02F09EFBE6
:1044E00041EC1A0B9FEDFE0B53EC102B9DED080BCE
:1044F00051EC100B02F092FB41EC1B0B9FEDFA0B01
:1045000051EC1A0B53EC102B02F088FB41EC1A0B08
:104510009FEDF70B53EC102B9DED080B51EC100B9E
:1045200002F07CFB53EC1A2B02F084FD41EC1A0BD9
:1045300051EC1B0B53EC1A2B02F08AF80690CDE9D4
:1045400006519DED060B53EC1B2B51EC100B02F0AA
:1045500071FD53EC1A2B02F095FC41EC100B00F0AE
:10456000A1B90020B6F5801F0EDA9FEDE30B53ECE6
:10457000102B9DED0E0B51EC100B02F04FFBCDE913
:104580000E016FF034000E4600EB2650A0F2FF370C
:10459000C6F31300DA4940F07F6646F04056884281
:1045A000D8BF002408DDD7498142C8BF012403DCFD
:1045B0000024A6F580167F1CD348784400EBC40085
:1045C0000F9690ED00CB9DED0E0B53EC1C2B51EC98
:1045D000100B02F02FFD9DED0E0B41EC1B0B53EC6D
:1045E0001C2B51EC100B02F033F841EC100B51EC8A
:1045F000190B53EC102B02F0E7F841EC1D0B51ECBA
:104600001B0B53EC1D2B02F009FB41EC1A0BBF48AE
:104610008DED10AB7844109590ED000B4FF00050ED
:1046200040EA660000EB84408DED080B00F50020A9
:1046300009909DED080B53EC1C2B51EC100B02F074
:10464000F9FC9DED0E1B53EC112B02F01BFC41EC11
:10465000100B53EC102B9DED100B51EC100B02F0D6
:10466000DDFA9DED080B41EC1C0B53EC102B9DED7E
:10467000100B51EC100B02F0D1FA53EC1B2B02F093
:1046800001FC53EC1C2B02F0D5FC53EC1D2B02F06B
:10469000C5FA41EC1C0B53EC1A2B51EC1A0B02F02F
:1046A000BDFA41EC1B0B9A480621B0EE4B0AF0EE26
:1046B0006B0A784400F058FEB0EE401AF0EE601A33
:1046C000B0EE41DAF0EE61DA53EC1B2B51EC1B0B30
:1046D00002F0A4FA53EC1D2B02F0A0FA9DED100B92
:1046E00041EC1B0B53EC1A2B51EC100B01F0B0FFFB
:1046F00053EC1C2B02F092FA53EC1B2B01F0A8FF99
:104700009DED100B41EC1B0B53EC102B51EC100BDF
:1047100002F084FA41EC1D0B9FED7FEB53EC1E2B56
:1047200001F096FF53EC1B2B01F092FF0890CDE9AE
:1047300008519DED080B53EC1E2B51EC100B02F0B1
:1047400079FC53EC1D2B02F075FC53EC1B2B02F093
:1047500099FB9DED080B41EC1D0B53EC102B9DEDCF
:10476000100B51EC100B02F059FA41EC1B0B53ECFF
:104770001A2B51EC1D0B02F051FA9DED080B41EC88
:104780001A0B53EC102B51EC1C0B02F047FA53ECB4
:104790001A2B01F05DFF41EC1A0B51EC1B0B53EC93
:1047A0001A2B01F055FF0C90CDE90C519DED0C0B2F
:1047B00053EC1B2B51EC100B02F03CFC53EC1A2B6E
:1047C00002F060FB41EC1B0B9FED550B53EC102BE3
:1047D0009DED0C0B51EC100B02F020FA41EC1A0B82
:1047E0009FED510B51EC1B0B53EC102B02F016FA02
:1047F00041EC1B0B9FED4E0B53EC102B9DED0C0B66
:1048000051EC100B02F00AFA53EC1B2B01F020FFC5
:1048100041EC100B4848784400EBC40090ED001BBD
:1048200051EC100B53EC112B01F012FF41EC1B0B60
:10483000384602F08CF9CDE9080153EC1B2B51EC02
:104840001A0B01F005FF41EC100B3C48784400EBDB
:10485000C40090ED00CB51EC100B53EC1C2B01F07D
:10486000F7FE9DED081B53EC112B01F0F1FE0690B5
:10487000CDE906519DED080B53EC102B9DED060B79
:1048800051EC100B02F0D6FB53EC1C2B02F0D2FBC8
:1048900053EC1A2B02F0CEFB53EC1B2B02F0F2FA76
:1048A00041EC100B9DED261B53EC102B8DED001BE6
:1048B00000959DED260B51EC100B02F0AFF99DED2C
:1048C000000B41EC1A0B53EC102B9DED260B51EC19
:1048D000100B02F0AFFB9DED061B53EC112B2FE0EC
:1048E000000000604715F73FFE822B654715F73F34
:1048F00044DF5DF80BAE543E000000000000404372
:104900008E9803007AB60B00022E0000602E000085
:104910003A2D0000000000000000000000000840E8
:10492000000000E009C7EE3FFD033ADC09C7EE3F97
:10493000F5015B14E02F3EBEC62B0000802B00006B
:1049400002F06CF953EC1A2B01F082FE9DED060B80
:1049500041EC1A0B53EC102B9DED000B51EC100B9E
:1049600002F05CF9CDE90C019DED0C0B51EC1A0B3A
:1049700053EC102B01F06CFECDE902010C46AA4964
:104980008C422FDB611A084318D19DED0C0B53ECC0
:10499000102B9DED020B51EC100B02F04BFB41EC88
:1049A0001B0B9FEDA30B51EC1A0B53EC102B01F0DA
:1049B0004FFE53EC1B2B02F02FFA2DD20220FBF7F7
:1049C000F9FC00F021FE10EE901A18EE900A8DED21
:1049D000020B8DED008B61F31E0003909DED020B29
:1049E000FFF7BEBB944A24F00041914214D393498F
:1049F000214408437FF4EFAC9DED0C0B53EC102BDE
:104A00009DED020B51EC100B02F014FB53EC1A2B32
:104A100002F002FA7FF6DFAC24F000408849894AB0
:104A2000002601EB205182422BDA481C4FF4801102
:104A300021FA00F02044844AC0F30A517A44A1F2DA
:104A4000FF3192ED000B814A8DED080BCA4020EA40
:104A50000202C0F3130040F48010C1F1140120FAE7
:104A600001F60992002CB8BF76429DED080B53EC7D
:104A7000102B9DED0C0B51EC100B02F0DBFACDE985
:104A80000C019DED0C0B51EC1A0B53EC102B01F0AB
:104A9000DFFD9FED6F0B0890CDE9085153EC102B13
:104AA0009DED080B51EC100B02F0B8F841EC1B0B1C
:104AB0009FED690B53EC102B9DED080B51EC100B87
:104AC00002F0ACF89DED0C0B41EC1C0B53EC102BE1
:104AD0009DED080B51EC100B02F0ACFA53EC1A2BC5
:104AE00002F0D0F99FED5E1B53EC112B02F096F80B
:104AF00053EC1C2B01F0ACFD41EC1A0B51EC1B0BE1
:104B000053EC1A2B01F0A4FDCDE902019DED020B3F
:104B100053EC1B2B51EC100B02F08CFA53EC1A2BBC
:104B200002F0B0F99DED020B41EC1A0B53EC102B87
:104B300051EC100B02F072F8CDE908014A489DEDE6
:104B4000080B0521784400F00FFC9DED081B51EC8B
:104B5000100B53EC112B02F061F89DED021B53EC8E
:104B6000112B02F08FF9CDE906019DED020B53ECFC
:104B70001A2B51EC100B02F051F853EC1A2B01F0E8
:104B800067FD9FED3B0B41EC1A0B53EC102B9DED99
:104B9000060B51EC100B02F04DFA9DED060B41ECAB
:104BA0001B0B53EC102B9DED020B51EC100B02F084
:104BB00035F853EC1B2B01F007FE53EC1A2B02F0D7
:104BC00039FA9DED021B53EC112B02F033FA53EC32
:104BD000192B02F057F9CDE9020101EB065001153E
:104BE0000029C8BF039015DC9DED020B324651EC45
:104BF000100B02F040FBFEF710FF042808BF00F086
:104C000013FD32469DED020B51EC100B02F033FB0D
:104C1000CDE902019DED020B51EC180B53EC102B6A
:104C200001F0FCFFFFF73ABB0000904000000000DD
:104C3000FE822B654715973C00CC904000346F3FB7
:104C400001FCFFFF0000E03F382A0000FFFF0F00DB
:104C500000000000432EE63F396CA80C615C20BECA
:104C6000EF39FAFE422EE63FD8280000000000008F
:104C7000000000000000004010B52F499FED2C1BE4
:104C80002DED020B84B0059820F000408842DCBF77
:104C900000209DED040B32DD2849884209D104989B
:104CA00040B94FF00100FBF785FB00F09DFC06B01A
:104CB00010BD05DB9DED040B00F082FC06B010BDBD
:104CC00068469DED040B00F07BF810F0030011D056
:104CD000012818D09DED021B9DED000B02281AD073
:104CE00000F08AFA51EC100B01F0A5FC06B041EC83
:104CF000100B10BD9DED021B9DED000B012000F07F
:104D0000AFFB06B010BD9DED021B9DED000B00F04A
:104D100073FA06B010BD012000F0A2FB51EC100B9D
:104D200001F089FC06B041EC100B10BD0000000042
:104D30000000000000000000FB21E93F0000F07FC0
:104D400000B52DED048BB0EE409AF0EE609A83B082
:104D500051EC190B02F0A2F841EC180B18EE100AF6
:104D600018EE901A8DED008B002818BF0120084323
:104D700020F00040C0F17F6000F1E040C00F14D08F
:104D800019EE101A19EE900A8DED009B002918BF3C
:104D90000121084320F00040C0F17F6000F1E040B5
:104DA000C00F04BF0120FBF705FBB0EE480A03B0BB
:104DB000F0EE680ABDEC048B00BD000000000000AE
:104DC0002DE9F14F04462DED020B2DED088B8AB035
:104DD0009FEDE70B80ED020B139EE74826F00045A0
:104DE00085420ADC9DED120B002084ED000B0AB019
:104DF000BDEC088B03B0BDE8F08FE0489FEDE0AB61
:104E00009FEDE1BBA84247DDE14F9FEDE39B9FEDA6
:104E1000E48B9DED120B53EC1A2B51EC100B002E72
:104E20001CDD02F007F941EC100BBD4208D053EC39
:104E30001B2B51EC100B02F0FDF8C4E900010BE054
:104E400053EC192B51EC100B02F0F4F853EC182B27
:104E500002F0F0F8C4E900010120C8E701F0F8FB16
:104E600041EC100BBD4208D053EC1B2B51EC100B46
:104E700001F0EEFBC4E900010BE053EC192B51ECFF
:104E8000100B01F0E5FB53EC182B01F0E1FBC4E93A
:104E900000014FF0FF30AAE7C348A84279DB9DED3F
:104EA000120B51EC100B01F05DF841EC180B9FED6B
:104EB000C00B53EC102B01F0B1FE9FEDBF1B53EC68
:104EC000112B01F0C5FB01F013FE074601F03FFE78
:104ED00041EC190B53EC1A2B01F0A0FE53EC182BEC
:104EE00001F0D0FF41EC180B53EC1B2B51EC190BCC
:104EF00001F094FEDFF8C8A241EC100B4FEA155800
:104F00000125FA4453EC102B51EC180B02F092F8E7
:104F1000032DC4E900013DD0C1F30A5005EB451152
:104F2000A8EB00001139814234DA0AEB051BB0EE20
:104F300048AA9BED000BF0EE68AA53EC102B51EC45
:104F4000190B01F06BFE41EC1B0B51EC1A0B53ECEF
:104F50001B2B02F06FF841EC180B51EC1A0B53ECC1
:104F6000182B02F067F853EC1B2B02F063F89BED53
:104F7000020B41EC1A0B53EC102B51EC190B01F006
:104F80004DFE53EC1A2B02F055F841EC100B6D1C42
:104F9000B8E70EE0002EA8BF3846BFF628AF94ED64
:104FA000000B51EC100B01F046FBC4E90001784204
:104FB0001DE7C6F3130040F4801EC6F30A50A0F2AA
:104FC000F530471100F01F05C5F12000DDF848B0AD
:104FD00008900020069007900520EC467949002DA6
:104FE00007EB0002794408BF51F8221009D051F8AC
:104FF000223001EB8201AB404A68089922FA01F1A4
:105000001943A1FB0E26A1FB0B131A449A4234BF8D
:105010000123002303EB06080CEB8003D3E901A670
:105020000E448E4234BF0121002192448A4411B1C2
:10503000924502D903E0924501D2012100E000210E
:10504000C3E901A641444CF82010011EA0F1010063
:10505000C4DC029800F10050850F0298DDE9036777
:105060008000DDF8148001F072FD41EC1A0B30462F
:1050700001F084FD9FED541B53EC112B01F0CEFD8C
:1050800041EC1B0B384601F079FD9FED511B53ECB1
:10509000112B01F0C3FD41EC180B404601F06EFDF1
:1050A0009FED4D1B53EC112B01F0B8FD41EC190B9A
:1050B00051EC180B53EC192B01F0CAFA53EC1B2BD3
:1050C00001F0C6FA53EC1A2B01F0C2FACDE908013F
:1050D000002008909DED080B53EC1A2B51EC100B9F
:1050E00001F0A8FF53EC1B2B01F0A4FF53EC182B8D
:1050F00001F0A0FF53EC192B01F0C4FE9FED381B0B
:1051000053EC112B01F08AFD9FED370B41EC180B8E
:1051100053EC102B9DED080B51EC100B01F07EFDB4
:1051200053EC182B01F094FA9FED310B41EC180B66
:1051300053EC102B9DED080B51EC100B01F06EFDA4
:1051400053EC182B01F084FA41EC100B139810F07B
:10515000004F06D06D4251EC100B01F06CFA41EC9F
:10516000100B284684ED000B41E600000000000013
:105170000000000000000000FB21E93F7CD9024054
:1051800000004054FB21F93F3163621A61B4D03D05
:10519000FB21F93F000000000000601A61B4D03D1F
:1051A0007370032E8A19A33BFB21394100000000D4
:1051B00083C8C96D305FE43F000000000000E03F9D
:1051C0007A250000C8240000000000000000103E06
:1051D000000000000000103C000000000000103A39
:1051E000182D4454FB21F93D3326A611460B113CE2
:1051F00000000054FB21F93D10B52DED040B2DED01
:10520000088B82B0B0EE419AF0EE619A0B9820F0D4
:1052100000449FED4BABB4F1795F11DA9DED0A0BC1
:1052200051EC100B01F064FC002801BFB0EE4A0AFB
:10523000F0EE6A0A02B0BDEC088B04BF04B010BDEA
:105240009DED0A0B53EC102B51EC100B01F0E6FC1A
:1052500041EC180B3C480621B0EE480AF0EE680A13
:10526000784400F081F853EC182B51EC100B01F04E
:10527000D5FC9DED0A0B41EC1B0B53EC192B51ECAB
:10528000100B01F0CBFC41EC190B53EC1B2B51EC38
:10529000180B01F0C3FC53EC192B01F0CBFE9FED72
:1052A0002C0B41EC190B53EC102B51EC180B01F0AB
:1052B000B5FC41EC100B2848844210DA53EC192B52
:1052C00051EC100B01F0B6FE53EC1A2B01F0DAFD95
:1052D00041EC100B02B0BDEC088B04B010BD1F48B0
:1052E000A042BCBF9FED1E1B8DED001B06DBA4F58D
:1052F00000100190002000909DED001B51EC100B60
:1053000053EC112B01F096FE9DED000B41EC180BB8
:1053100053EC102B51EC1A0B01F08CFE41EC1A0BE4
:1053200053EC192B51EC180B01F084FE53EC1A2BA3
:1053300001F0A8FD41EC100BCCE7000000000000DC
:10534000000000000000F03FE42100000000000029
:10535000000000000000E03F3333D33F0000E93F8E
:10536000000000000000D23F70B504462DED028B16
:105370004D1E00EBC500B0EE408AF0EE608A90ED65
:10538000000B35F0060017D053EC182B51EC100B26
:1053900001F044FC41EC100B6D1E04EBC50090EDD8
:1053A000001B51EC100B53EC112B01F051F941ECA7
:1053B000100B35F00600E7D1022D36D0042D1CD09D
:1053C000062D1CBFBDEC028B70BD53EC182B51ECAD
:1053D000100B01F023FC94ED0A1B53EC112B01F090
:1053E00037F953EC182B01F019FC94ED081B53EC22
:1053F000112B01F02DF941EC100B53EC182B51EC53
:10540000100B01F00BFC94ED061B53EC112B01F07B
:105410001FF953EC182B01F001FC94ED040B53EC35
:10542000102B01F015F941EC100B53EC182B51EC3B
:10543000100B01F0F3FB94ED021B53EC112B01F068
:1054400007F953EC182B01F0E9FB94ED001B53EC2A
:10545000112B01F0FDF8BDEC028B41EC100B70BD7F
:1054600031B504462DED040B2DED0A8BB0EE41BA9B
:10547000F0EE61BA0B989DED0A0B20F00040B0F100
:10548000795F0DDA51EC100BFEF7C7FA042808BF5C
:1054900000F0CAF89DED0A0BBDEC0A8B05B030BDDB
:1054A00053EC102B51EC100B01F0B8FB41EC180B36
:1054B0009DED0A0B53EC182B51EC100B01F0AEFBD9
:1054C00041EC190B2C48B0EE480AF0EE680A0521B1
:1054D0007844FFF749FF9FED2ACBB0EE40AAF0EEEB
:1054E00060AA9CB353EC1C2B51EC190B01F096FBFA
:1054F00041EC1C0B53EC1A2B51EC190B01F08EFBF9
:105500009FED210B41EC190B53EC102B51EC1B0BB5
:1055100001F084FB53EC192B01F08CFD53EC182B9C
:1055200001F07CFB53EC1B2B01F084FD53EC1C2B96
:1055300001F080FD9DED0A1B53EC112B01F0A2FC44
:10554000BDEC0A8B05B041EC100B30BDFFE753EC0E
:105550001A2B51EC180B01F061FB53EC1C2B01F0E2
:1055600077F853EC192B01F059FB9DED0A1B53EC16
:10557000112B01F06DF8E3E774200000000000003B
:10558000495555555555C5BF000000000000E03F86
:105590009FED070B10B553EC102B9FED070B51EC53
:1055A000100B01F011F941EC100B10BD00000000D0
:1055B0000000000000000000000000000000F03FBC
:1055C00010B553EC102B51EC100B01F041F841ECED
:1055D000100B10BD10B553EC112B51EC100B01F05A
:1055E00037F841EC100B10BD9FED050B10B553ECD7
:1055F000102B51EC100B01F0E7F841EC100B10BD33
:1056000000000000000000009FED050B10B553ECFA
:10561000102B51EC100B01F001FB41EC100B10BDF5
:1056200000000000000000709FED050B10B553EC6A
:10563000102B51EC100B01F0F1FA41EC100B10BDE6
:10564000000000000000001010B541EC100BFEF748
:105650000FFA51EC100B10BD70B52DED0A8B9FEDBC
:105660007CAB9FED7DBB9FED7ECB9FED7F8B9FED58
:10567000809B814EC0EBC00506EBC50453EC182B94
:1056800094ED040B51EC100B01F08CFA08D894ED5A
:10569000040B53EC1A2B51EC100B01F0BDFB11D392
:1056A00094ED040B53EC1B2B51EC100B01F07AFA28
:1056B0000AD294ED040B53EC1C2B51EC100B01F0AF
:1056C000ABFB01D2012000E0002046F8350094ED4C
:1056D000040B53EC1B2B51EC100B01F063FA11D2AD
:1056E00094ED040B53EC1C2B51EC100B01F094FBCC
:1056F00008D294ED040B53EC182B51EC100B00F076
:10570000A7FF1DE094ED040B53EC182B51EC100B8C
:1057100001F048FA16D894ED040B53EC1A2B51EC17
:10572000100B01F079FB0DD294ED040BB0EE481A8A
:10573000F0EE681A53EC112B51EC100B01F07AFCCF
:10574000C4E9040194ED020B94ED041B53EC102BFF
:1057500051EC110B01F06EFCC4E9080153EC192B5C
:1057600001F020FA08D294ED089B53EC182B51EC71
:10577000190B00F06DFF16E094ED041B94ED020B85
:1057800053EC112B51EC100B01F054FC53EC192B82
:1057900001F008FA0BD894ED089B53EC182B51EC50
:1057A000190B01F047FCC4E90A0184ED0C9B94ED50
:1057B0000C0BFEF72DFCB0EE401AF0EE601AB0EEC6
:1057C000418AF0EE618A94ED0A0BFEF721FC53EC5E
:1057D000182B51EC100B01F01FFB04D894ED0C0BAF
:1057E00084ED080B09E094ED0A0B84ED080B56F8E4
:1057F0003500C0F1010046F8350094ED081B94ED2A
:10580000060B53EC112B51EC100B00F021FF41EC77
:10581000100B84ED060B01F06BF94FF4B47190FBA3
:10582000F1F201FB12025A3AB42A07D990FBF1F2C5
:1058300001FB120000F58770B42805D856F8350032
:10584000C0F1010046F83500BDEC0A8B70BD0000C8
:10585000000000000080564000000000008056C09C
:1058600000000000008066C000000000008066406C
:1058700000000000000000007004002000B58BB0A4
:1058800000200121CDE906010891009001900290CD
:1058900003900590049069460548FAF7ADFF044867
:1058A000FBF736FB02210248FAF726FF0BB000BDDA
:1058B000840200200188B0F90820891A41F2883258
:1058C000914202DDC168491E05E041F28832D142B1
:1058D00002DAC168491CC160704700002DE9F04739
:1058E0009A462DED108B91460F460646B0EE428A41
:1058F000F0EE628AB0EE41AAF0EE61AAB0EE40BAD4
:10590000F0EE60BAFA4D9FEDFBCB9FEDFC9B9FED57
:10591000FDEBDDF860800BE09FEDFC0B53EC102BF2
:1059200095ED000B51EC100B01F078F9C5E9000181
:10593000B0EE4C0AF0EE6C0AFFF702FA53EC182BAB
:1059400051EC100B01F06AF953EC192B01F066F9D8
:1059500053EC1B2B01F096FA41EC100BB0EE4C1AF5
:10596000F0EE6C1AFEF760FBB0EE40DAF0EE60DAB3
:10597000B0EE4C0AF0EE6C0AFFF7E2F953EC182B8C
:1059800051EC100B01F04AF953EC192B01F046F9D8
:1059900053EC1A2B01F076FA41EC100BB0EE4C1AD6
:1059A000F0EE6C1AFEF740FBB0EE401AF0EE601A13
:1059B00053EC1D2B51EC110B00F04AFE41EC100B87
:1059C000FFF7BEF9B0EE401AF0EE601A95ED000B4D
:1059D00051EC110B53EC102B01F020F941EC100BA2
:1059E000FEF716FB53EC1E2B51EC100B01F014FAD2
:1059F00092D39FEDC00BFFF7A3F953EC182B51EC9A
:105A0000100B01F00BF9B0EE49FAF0EE69FA53EC25
:105A10001F2B01F003F953EC1B2B01F033FA41EC7F
:105A2000100B9FEDB41BFEF7FFFAB0EE40DAF0EE7C
:105A300060DA9FEDB00BFFF783F953EC182B51ECB4
:105A4000100B01F0EBF853EC1F2B01F0E7F853ECCF
:105A50001A2B00F0FDFD41EC100B9FEDA61BFEF78D
:105A6000E3FAB0EE401AF0EE601A53EC1D2B51EC45
:105A7000110B00F0EDFD41EC100BFFF761F995ED16
:105A8000001B51EC100B53EC112B01F0C7F841EC4B
:105A9000100BFEF7BDFAB0EE4EDAF0EE6EDA53EC14
:105AA0001D2B51EC100B01F0B7F9A1D39FED910B19
:105AB000FFF746F953EC182B51EC100B01F0AEF840
:105AC0009FED8E1B53EC112B01F0A8F853EC1B2B10
:105AD00000F0BEFD41EC100B9FED861BFEF7A4FA13
